:100000000C9415020C945C020C945C020C945C023F
:100010000C945C020C945C020C945C020C945C02E8
:100020000C945C020C945C020C94C31B0C94971C03
:100030000C942B140C945C020C945C020C945C02E7
:100040000C945C020C945C020C945C020C945C02B8
:100050000C945C020C9476140C945C020C945C027C
:100060000C945C020C945C020C945C020C945C0298
:100070000C945C020C945C020C945C020C945C0288
:100080000C945C020C945C020C945C020C945C0278
:100090000C945C020C945C020C945C020C945C0268
:1000A0000C945C020C945C020C945C022B00140017
:1000B0001A000800150017001C0018000C001200A0
:1000C00013002A00290004001600070009000A0096
:1000D0000B000D000E000F0033002800E1001D0092
:1000E0001B00060019000500110010003600370043
:1000F00038003400E000E000E200E30001512C0091
:100100002C0002515000510052004F005400550085
:100110006300270057001E001F002000560021002A
:1001200022002300670024002500260000000000B4
:1001300000000000000000000000000026001E0279
:100140001F0220022102220223022402250226028B
:1001500027024C0023003A003B003C003D003E00DB
:100160003F002D022E022F023002310220004000FB
:1001700041004200430044004500320264024A004C
:100180004D000100270001000100010001000100F5
:1001900001000100AB00AA00A900AE005400550008
:1001A0006300010057001E001F00010056002100DF
:1001B00022004C00670024002500350200000000EA
:1001C00000000000000000000000000035001E00DC
:1001D0001F0020002100220023002400250026000B
:1001E00027004C004C003A003B003C003D003E0024
:1001F0003F002D002E002F00300031000100400094
:1002000041004200430044004500320064004B00BE
:100210004E00010001000100010001000100010089
:1002200001000100AB00AA00A900AE005400550077
:100230006300270057001E001F0020005600210009
:100240002200230067002400250026000000000093
:10025000000000000000000000000000005CC25C24
:10026000C35CC55CC95CCA5CC75CC85C01000000BB
:1002700000004C0001000100295C1D5C1E5C135C49
:100280000A5C0100010001000100010001002B5C7B
:100290002A5C265C275C2C5C2D5C010001000100BF
:1002A0000100010001000100010001000100010046
:1002B000010001000100010001000100540055008F
:1002C0006300270057001E001F0020005600210079
:1002D0002200230067002400250026000000000003
:1002E00000000000000000000000000004033000D7
:1002F00000001403560061006E00650065006C008C
:1003000061004500780000000E036E006F0063007E
:100310006C006500770000000403090409023B003B
:10032000020100A0FA0904000001030101000921F3
:10033000110100012240000705810308000A090499
:1003400001000103000000092111010001228100C8
:100350000705820320000A120110010000000806B0
:1003600099020001000102030105010902A10185B2
:10037000020901A1000509190129051500250195AA
:100380000575018102950175038101050109300997
:10039000311581257F95027508810609381581255B
:1003A0007F950175088106050C0A38021581257FA5
:1003B000950175088106C0C005010980A10185036A
:1003C00019012AB700150126B700950175108100A3
:1003D000C0050C0901A101850419012AA00215011B
:1003E00026A002950175108100C005010906A10132
:1003F000050719E029E71500250195087501810217
:100400009501750881010507190029FF150026FFD0
:1004100000950675088100050819012905950575DF
:10042000019102950175039101C011241FBECFEF08
:10043000DAE0DEBFCDBF04B603FE27C080916502BF
:1004400090916602A0916702B09168028730904B4C
:10045000A740B04BD1F41092650210926602109240
:1004600067021092680214BE84B7877F84BF0FB6FC
:10047000F894A89580916000886180936000109244
:1004800060000FBEE0E0F8E3099511E0A0E0B1E004
:10049000EEEBFDE302C005900D92AA38B107D9F743
:1004A00022E0AAE8B1E001C01D92A536B207E1F74B
:1004B0000E94F4180C94B91E0C9400000F9303E0F2
:1004C00021E042E00E94B6020F91089581E0089574
:1004D00081E008950C94680208950C946C021F93B7
:1004E000CF93DF9300D000D00F92CDB7DEB7498312
:1004F0005A836B833091A40189819A8131111DC087
:100500006623B9F02223A9F00E94A211182F682FA8
:1005100089819A810E944E1169817A81812F0F9081
:100520000F900F900F900F90DF91CF911F910C942F
:1005300071030E947A11182FEFCF0E94A2116981D6
:100540007A81EDCFFC01262F408151816281738138
:1005500084810C946F02CF93DF93EC0160E00E94E2
:10056000A202BE01DF91CF910C946D028F929F92F7
:10057000AF92BF92CF92DF92EF92FF920F931F93B1
:100580006B017C0181E090E0A0E0B0E04C015D01F6
:1005900004C0880C991CAA1CBB1C4A95D2F7B50153
:1005A000A4014C015D0104C0880C991CAA1CBB1C51
:1005B0002A95D2F7482959296A297B2904C0880F2E
:1005C000991FAA1FBB1F0A95D2F78A019B010C2114
:1005D0001D212E213F21041715072607370789F40F
:1005E0008C299D29AE29BF29BC01CD011F910F91F6
:1005F000FF90EF90DF90CF90BF90AF909F908F9043
:10060000089580959095A095B0958C219D21AE215F
:10061000BF21EACF0E94AD140E94DF12811102C0F7
:100620000E947C130C945A050C945D0508950C945B
:10063000160381E008950C941903CF93C82F0E94EC
:1006400017038C2FCF910C941B0308950E94320D39
:100650000E9425032FEF84E39CE0215080409040CE
:10066000E1F700C000000C949A140F931F93CF93EE
:10067000DF93EC0161E00E94A2028C01BE010E94A6
:100680006A02882329F1BE01C8010E94E30688237B
:10069000F9F0BE01C8010E9424078823C9F0BE01F9
:1006A000C8010E944708882399F08A81882339F07D
:1006B00001158CE5180751F00E3D1C4579F0CE016F
:1006C000DF91CF911F910F910C9466020E94260337
:1006D00080E0DF91CF911F910F9108950E947C13CC
:1006E000F7CF972F70E02CE0929F600D711D1124C1
:1006F000FB0198E4899FE00DF11D1124EE0FFF1F0F
:10070000E455FF4F859194910895CF93DF930E9414
:1007100071030E947F04EC01811521E5920708F026
:1007200042C0811530E5930708F09DC0883E9105D1
:1007300030F5803E910508F092C0883A910588F422
:10074000853A910508F084C08130910509F487C08D
:10075000009709F484C0049708F081C0D0E0C0E09D
:100760007EC08F3B9105D0F7C85AD0E0CC0FDD1F7B
:10077000CB5EDE4F0990D881C02DD46470C0811546
:10078000904250F4C11581E0D80708F068C0C03F1E
:10079000D10520F3D06563C0C11590E4D907F0F20C
:1007A000DF70D06A5CC0811525E5920700F58115E0
:1007B00034E5930708F08BC0811543E5940708F0F2
:1007C00073C0C11582E5D80708F469C0CE018370F3
:1007D000992721E030E002C0220F331F8A95E2F70B
:1007E000C695C69580E2C89FE001112454C0C1158A
:1007F00099E5D907A8F4C11528E5D20708F06CC01F
:10080000C11536E5D30708F0A9CF8C2F0E94160535
:10081000C82FD0E0DC2FCC27CC27DF71D0621FC0DF
:10082000C1154AE5D40708F45CC0CE019056811585
:10083000904208F093CF8D2F8F710E94160590E0A3
:10084000982F882788279F719C012C2BE901E6CFE0
:10085000C55AD0E0CD5BDE4FC881D0E0D064CE0178
:10086000DF91CF910895E4E096958795EA95E1F7B9
:1008700083702C2F26952695237040E2249F9001AB
:100880001124382B8C2F8370C1E0D0E002C0CC0F34
:10089000DD1F8A95E2F7C22BD32BDC68E0CFDC2F7B
:1008A000CC27C16FD06ADBCF8370992721E030E07D
:1008B00002C0220F331F8A95E2F7C695C69590E2D3
:1008C000C99FE0011124C22BD32BDA68C8CFD82FDF
:1008D000CC27C46FD06AC3CFDC2FCC27C06FD06ABF
:1008E000BECF8C2F8F700E94160534E0D695C79529
:1008F0003A95E1F7CF709C2FEC01D069B0CF8238E8
:100900009105B1F1B0F48133910509F475C048F453
:100910008932910509F469C08A32910509F473C0DE
:1009200008958533910509F459C08933910501F182
:100930000895833E9105A9F138F4803E9105F9F0C0
:10094000823E910549F10895863E9105A9F1873EC1
:100950009105C9F1843E910519F52091570221FFB7
:100960001FC08091560284FD14C087EE90E0089568
:10097000209156022370A1F080EE90E0089520911E
:10098000560220FD47C03091570230FF09C024FFB6
:1009900044C090E080E004C02091560222FDF7CFD1
:1009A00008952091560222FD3BC03091570230FD40
:1009B000E3CF24FFF5CFEDCF2091560223FFF0CFF8
:1009C00024FDE7CFD2CF2091560223FD2CC03091D9
:1009D000570231FFEECF84EE90E008952091560249
:1009E00025FFDECF89E290E008952091560225FF91
:1009F000D7CF85E390E008952091560226FFD0CF0F
:100A00008AE290E008952091560226FFC9CF81E343
:100A100090E0089589E390E0089583EE90E00895D2
:100A200082EE90E0089586EE90E00895909156024F
:100A300092FF06C0282F28712830F9F4877F846040
:100A400093FF06C0282F28712831F1F4877E846136
:100A50002091570220FF06C0382F38713830D9F462
:100A6000877F816021FF06C0282F28712831D1F4AB
:100A7000877E816194FD877E0895282F247124301C
:100A8000F9F68B7F8860DCCF282F2471243101F7A1
:100A90008B7E8861DDCF382F3171313019F78E7F31
:100AA0008860E0CF282F2171213121F78E7E886167
:100AB000E1CF08950C94590508950C945C05E82F36
:100AC000F0E0EE0FFF1FEA5BFD4F808191810895FA
:100AD000089580EA8A95F1F70895A2E5B1E061E012
:100AE00070E08D91E82FE295EF70F0E041A18F70FA
:100AF0009B0101C0220F8A95EAF7922F90959423CB
:100B000091A382A1822B82A381E0A835B80749F77F
:100B1000A6E4B1E061E070E08D91E82FE295EF701E
:100B2000F0E041A18F709B0101C0220F8A95EAF786
:100B3000922F9095942391A382A1822B82A381E08E
:100B4000A235B80749F7EAE3F2E0A6E4B2E086E4AA
:100B500092E0119211921D921D928E179F07C9F774
:100B600086E00E943C060C940A038F929F92AF92FB
:100B7000BF92CF92DF92EF92FF920F931F93CF938A
:100B8000DF9382E5E82E81E0F82E0AE312E0912C53
:100B9000AA24A394B12CF70181917F01C82FC2959B
:100BA000CF70D0E099A18F70650101C0CC0C8A95FF
:100BB000EAF7892F8C2989A38AA18C2C809488211B
:100BC0008AA30E946905E6E4F1E050E040E030E0ED
:100BD00020E06191A62FA295AF70B0E090968C9125
:100BE00090E06F7002C0959587956A95E2F780FD59
:100BF0003EC0C501042E02C0880F991F0A94E2F777
:100C0000282B392B4F5F5F4F4C30510511F789A1CD
:100C1000882289A28AA1C82ACAA2F801808191816A
:100C20002817390739F13183208381E0982A0E5F34
:100C30001F4FF8E5EF16F1E0FF0609F0ACCF292DC4
:100C400046E066E472E08AE392E00E943D060E947C
:100C50001403892DDF91CF911F910F91FF90EF9099
:100C6000DF90CF90BF90AF909F908F90089590E0CD
:100C700080E0C6CF80E0DACF0895FF920F931F93F4
:100C8000CF93DF93F82E092F162FD72FC42F2223AF
:100C900049F081E080938C010E945B1490938B015A
:100CA00080938A0180918C018823A1F080918A0130
:100CB00090918B010E946714069760F0EF2DF02F42
:100CC000A12FBD2F90E080E0D0E08C179D0744F06D
:100CD00010928C01DF91CF911F910F91FF90089599
:100CE000219131912D933D930196EFCF0F931F9357
:100CF000CF93DF93C62FD42F022FFC01828188234C
:100D0000C9F060938F010E945B1490938E018093D1
:100D10008D0180E28C0F883008F050C0C77081E0F0
:100D200001C0880FCA95EAF7DF91CF911F910F910B
:100D30000C94C30A10918F01161335C080918D0158
:100D400090918E010E946714883C910560F5C0E285
:100D5000CD0F1D17B9F080E2810F883040F4177075
:100D600081E001C0880F1A95EAF70E94CA0AC830CC
:100D700048F481E09D2F977001C0880F9A95EAF79B
:100D80000E94C30A802F0E94B00AC830B8F4D770FE
:100D900081E001C0880FDA95EAF7DF91CF911F91CA
:100DA0000F910C94CA0A80E28C0F883038F4C77017
:100DB00081E001C0880FCA95EAF7EFCFDF91CF91AC
:100DC0001F910F9108959C01CB01233F4CE53407FF
:100DD00031F190F4283DFCE53F07E9F0293D4CE571
:100DE000340769F1273D3C4579F426E241EE61EE96
:100DF0000E94760680E00895253FFCE53F07B9F0A4
:100E000090F0263F3C45B9F0FC0182818823D1F067
:100E100010928F01089527E245EE65EEE9CF26E2B4
:100E200041EE60EEE5CF27E245EE64EEE1CF26E24B
:100E300041EE62EEDDCF27E245EE66EED9CF28E245
:100E400041E0EBCF81E00895CF93DF93EC01FB010C
:100E50008281882309F419C1C230FCE5DF07C0F1A3
:100E6000C6319CE5D90730F09E012A5F3C45293008
:100E7000310570F50E94F21290935702809356024A
:100E8000C031ECE5DE0709F4CFC008F05BC0C83024
:100E90008CE5D80709F4B6C088F5C430ECE5DE0768
:100EA00009F4A8C0C0F4C2308CE5D80709F49CC08E
:100EB000809156028260C330DC4509F498C080916D
:100EC0005602909157020E9400130E94320D80E05A
:100ED000DF91CF910895809156028061C630ECE594
:100EE000DE0709F484C0809156028860C730DC4573
:100EF00008F47DC080915602806279C0CC308CE5C8
:100F0000D80709F489C070F4809156028C60CA3009
:100F1000ECE5DE0709F46BC008F478C08091560256
:100F20008E7F65C0CE308CE5D80709F479C08091FA
:100F300056028B7FCF30DC4508F459C080915602B1
:100F40008F7E55C0CB3FECE5DE0709F457C030F586
:100F5000C3318CE5D80709F46FC078F4C131ECE5F2
:100F6000DE0709F465C0C231DC4509F0A8CF0E9454
:100F7000320D809156028F773AC0C5318CE5D80783
:100F800009F462C008F476C0809157028160CA3FBC
:100F9000DC4509F094CF8093570291CFCF3FFCE519
:100FA000DF0709F44DC088F4809157028D7FCD3F53
:100FB0009CE5D90781F3809157028E7FCE3FDC45B7
:100FC00050F3809157028360E6CFC130FDE5DF0723
:100FD00009F459C008F444C080E0C230DD4509F08E
:100FE0006ECF0E947E136BCF8091560281608093FA
:100FF000560265CF809156028460F9CF80915702E6
:101000008260C9CF809156028064F1CF0E94320D78
:10101000809156028068EBCF809156028D7FE7CF9A
:1010200080915602877FE3CF809156028F7DDFCF7C
:10103000809156028F7BDBCF80915602837FD7CF82
:10104000809157028C7FA7CF8091560282FB99270F
:1010500090F921E0922790FB82F990FB83F9C7CFAA
:1010600080915702982F909591708E7F892B90FBDD
:1010700081F991CF0E94320D90915602892F97FBF2
:1010800087F98058B4CF81E0ACCF81E021CFCF93F6
:10109000DF93EB0186319C4511F50E9437129A814E
:1010A000992399F08A7A91E009F490E09093900165
:1010B000811109C089E20E9412120E94761280E01A
:1010C000DF91CF91089585E3F6CF80919001811152
:1010D00004C089E20E941912F0CF85E3FBCF81E0C2
:1010E000EFCF90939601809395010895E09195013B
:1010F000F0919601309721F00190F081E02D099454
:1011000080E00895E0919501F0919601309721F0EB
:101110000280F381E02D09940895E0919501F0910A
:101120009601309739F022E0DC012C930480F581A0
:10113000E02D09940895209193013091940128178E
:10114000390771F09093940180939301E091950198
:10115000F0919601309721F00680F781E02D0994F7
:10116000089520919101309192012817390771F06B
:101170009093920180939101E0919501F0919601F5
:10118000309721F00084F185E02D0994089585B70A
:10119000806885BF85B7806885BF089508950895E4
:1011A0000C94CE0808950C94D2080E94C7080E949F
:1011B000CF080C94D00881E008950C94DB080E94BD
:1011C00052140E946D050E94C1140C94D3087F92A2
:1011D0008F929F92AF92BF92CF92DF92EF92FF9247
:1011E0000F931F93CF93DF93CDB7DEB72A970FB638
:1011F000F894DEBF0FBECDBF0E94B5050E94DD088A
:10120000882309F471C048E9A42E41E0B42E10E00F
:1012100000E0702E802F0E945F056C01F501819027
:1012200091905F018816990609F458C080911F02B9
:1012300081FD0E94680580E0EE24E394F12C8C246B
:101240009D2494012E213F21232B09F441C08E833C
:101250007F82CE20DF2081E0CD2809F480E08887DE
:101260000E945B148160782F9A8789874E815F8105
:1012700068858A850E949909000F111FF801E856B8
:10128000FE4F80819181E826F926F182E0820E945A
:101290004E160E947608909197018917B1F10E942D
:1012A0007608809397012A960FB6F894DEBF0FBE9A
:1012B000CDBFDF91CF911F910F91FF90EF90DF9005
:1012C000CF90BF90AF909F908F907F900C941D0314
:1012D0008F5FEE0CFF1C8C3009F0B3CF0F5F1F4FF8
:1012E0000630110509F095CF8FEF89838A831B8221
:1012F0000E945B148160782F9D838C8349815A8181
:101300006B818D810E949909C2CF2A960FB6F894FD
:10131000DEBF0FBECDBFDF91CF911F910F91FF9028
:10132000EF90DF90CF90BF90AF909F908F907F9085
:101330000895CF93DF93CDB7DEB72B970FB6F89410
:10134000DEBF0FBECDBF4F83588769877A878B87F3
:101350001E821D8285E0FE013796DE011196019006
:101360000D928A95E1F749815A816B817C818D814B
:101370009E812B960FB6F894DEBF0FBECDBFDF91D6
:10138000CF910C94A80FFC01808191810C94E41101
:10139000CF93C82F882309F48BC08238C1F40E94F0
:1013A000760881FD85C089E30E9412120E947612A0
:1013B0002FEF81EE94E0215080409040E1F700C093
:1013C000000089E30E941912CF910C9476128338A1
:1013D000A1F40E94760880FD6BC083E50E94121282
:1013E0000E9476122FEF81EE94E0215080409040D1
:1013F000E1F700C0000083E5E5CF8438A1F40E9446
:10140000760882FD55C087E40E9412120E9476126F
:101410002FEF81EE94E0215080409040E1F700C032
:10142000000087E4CFCF8CEF8C0F813A90F46C2FC3
:1014300080910001909101010E949513882329F069
:101440008C2F0E9419120E9476128C2F0E94121269
:10145000BBCF80E28C0F883048F4C77081E001C0B8
:10146000880FCA95EAF70E943A12AECFEBE5EC0F6F
:10147000E33040F4F0E0EA57FE4F808190E0CF91F6
:101480000C949B08E8E5EC0FE73150F4F0E0EE0F28
:10149000FF1FE85AFE4F80819181CF910C94B108D3
:1014A000C03F30F08C2F0E945C15CF910C944316F6
:1014B000CF910895882309F452C0823871F40E94B4
:1014C000760881FF4CC089E30E9412120E947612B6
:1014D00089E30E9419120C947612833859F40E9401
:1014E000760880FF3CC083E50E9412120E947612AB
:1014F00083E5EFCF843859F40E94760882FF2FC02D
:1015000087E40E9412120E94761287E4E2CF9CEFD9
:10151000980F913AF0F290E2980F983050F487705B
:1015200091E001C0990F8A95EAF7892F0E94401235
:10153000D2CF9BE5980F933020F490E080E00C949C
:101540009B0898E5980F973120F490E080E00C9488
:10155000B108803F20F00E94C4150C9443160895F2
:10156000CF93C82F0E94C809C93349F42FEF87EEE3
:1015700093E0215080409040E1F700C000008C2FA4
:10158000CF910C945A0A882321F00E943A120C94AD
:1015900076120895882321F00E9440120C9476124E
:1015A0000895BF92CF92DF92EF92FF920F931F9315
:1015B000CF93DF936C01D62FC72FFC0105810295D5
:1015C0000F70128111110E9457120E943012E82EE2
:1015D000882391F01123E9F08C2F807F803421F053
:1015E00080E28D0F8830A8F082E00E94C1120E9434
:1015F000301291E0E82EE926BC2EB2949FE0B92289
:10160000FBE0FB15A8F1EB2DF0E0E554F14E0C9456
:101610005D1EE12CF1CF0C2F0F70C07F11F00295F1
:10162000007F1123A9F0002359F080E28D0F88304C
:1016300010F0D11109C0802F0E943A120E94761238
:101640008D2F0E94C80914C0802F0E944A12F6CF25
:101650008D2F0E945A0A002359F080E28D0F8830A6
:1016600010F0D1112CC0802F0E9440120E947612DF
:101670002B2D2850330B2430310520F40E9476089E
:101680000E941D03EE2009F48EC10E942C1280FDE1
:101690008AC1F60112820E9426120E94B210C6016F
:1016A0000E94F40C0E942612DF91CF911F910F919E
:1016B000FF90EF90DF90CF90BF900C94D310802FCD
:1016C0000E945012D3CF2C2F2F70F22EC07FC03229
:1016D00019F0F29480EFF822DD2369F0D13049F15E
:1016E000112391F1002351F1F601858180FFA8CFEC
:1016F0008F70858323C0112381F0011106C00E94E1
:101700005D128F290E94C30AB3CF0130C1F70E9436
:101710005D128F290E946312ABCF011106C00E9497
:101720006C128F2D0E94CA0AA3CF013009F4A0CFFA
:10173000F6CF112329F0063008F09ACF8F2DE2CF93
:10174000053008F095CFEDCF002359F3D93349F494
:10175000FFEF27EE33E0F15020403040E1F700C0CA
:1017600000008D2F0E945A0A83CF8C2F8695869574
:10177000837069F0813009F07BCF8D2F9C2F93709F
:10178000111102C090E080E00E94B10871CF8D2F4E
:101790009C2F9370111102C090E080E00E949B0882
:1017A00067CF8D2F112329F00E945C150E944316EC
:1017B0005FCF0E94C415FACF8C2F837009F041C00F
:1017C000111156CF4D2F429546954770440F440F47
:1017D0000D2F0F7010E030E020E0042E04C0000F49
:1017E000111F221F331F0A94D2F760E070E0CB0173
:1017F000D4FF0FC06FE070E080E090E004C0660F9F
:10180000771F881F991F4A95D2F76095709580952C
:101810009095C695C695C370602B712B822B932B28
:10182000C23049F058F4C13019F00E94661020CF40
:101830000E9454101DCF0E9478101ACF0E9452109F
:1018400017CF8695112311F08C2F8170882309F40E
:101850000FCF4D2F429546954770440F440F0D2FE3
:101860000F7010E030E020E0042E04C0000F111FC4
:10187000221F331F0A94D2F760E070E0CB01D4FF3F
:101880000FC06FE070E080E090E004C0660F771F4B
:10189000881F991F4A95D2F760957095809590950D
:1018A000C695C695C370602B712B822B932BC230CB
:1018B00049F058F4C13019F00E942911D9CE0E9484
:1018C0001711D6CE0E943B11D3CE0E948C10D0CEE1
:1018D000CF70112329F08C2F0E94B2108D2F12CFC0
:1018E0008D2F0E94CA0A8C2F0E94D310C1CED23FE6
:1018F00089F160F4D03FC9F0D13F29F1112309F4F7
:1019000042C001119DCE8C2F8F7121C0D33F39F180
:10191000D43FA1F7112369F1CF718C2F0E94B2102F
:1019200063E08C2F0E94AC12A3CE112341F005304E
:1019300008F09ECE8C2F8F710E94F61099CE063043
:1019400008F096CEF7CF8C2F8F71112369F20E9489
:10195000B2108ECE8C2F8F711123C9F3C5CF1123F6
:1019600029F08C2F8F710E949D1082CE0E949810BA
:101970007FCE81E00E94C112023008F479CE82E06D
:101980000E94C11275CE002359F0D93309F0E9CE77
:101990008FEF97EEE3E081509040E040E1F7DFCE3B
:1019A0008C2F8F71A1CFDF91CF911F910F91FF905D
:1019B000EF90DF90CF90BF9008950F931F93CF9338
:1019C000DF93EC01688179818A810E94EE118C019C
:1019D0000E944D110E945110B801CE01DF91CF91AC
:1019E0001F910F910C94D10ACF93DF93EC018B815F
:1019F0009C81892B29F08881998189238F3F59F413
:101A0000DF91CF910895CE010E94DD0CCE01DF91D0
:101A1000CF910C94AB02CE010E9435038111F3CF1C
:101A20000E943012882361F38A81882349F382E07F
:101A3000DF91CF910C94C1120E9457120E945A124A
:101A40000E9476120E9468170E94431690E080E080
:101A50000E949B0890E080E00C94B1080E94201244
:101A60000C941C0D0E9447120C942E0DE92FE29548
:101A7000EF70E250EE3070F4F0E0E953F14E0C9468
:101A80005D1E803F19F020F4883E20F481E0089527
:101A9000843FE1F380E00895883EC0F3813FD1F7B1
:101AA000F5CF93FB882780F908950E94E4110C94E8
:101AB000360DCF93DF9300D000D00F92CDB7DEB7B5
:101AC0000F900F900F900F900F90DF91CF9108958E
:101AD000CF93DF9300D000D000D0CDB7DEB72696ED
:101AE0000FB6F894DEBF0FBECDBFDF91CF91089542
:101AF0001F93CF93DF93C091A50116E08091A601BB
:101B00008C1304C0DF91CF911F910895D0E01C9FEA
:101B1000F0011D9FF00D1124E955FE4F40815181C8
:101B200062817381848195810E94680D2196C770BE
:101B3000E5CF4091D7015091D8016091D9017091C2
:101B4000DA018091DB019091DC010C94680D1F9308
:101B5000CF93DF938091DC01807FA9F48091D9013C
:101B6000882389F08091A501C091A6016091D701D9
:101B70007091D801A091DA01B091DB01D62FD72363
:101B800016E0C81304C0DF91CF911F91089590E033
:101B9000109711F0DF3F19F401968770F2CF189F6C
:101BA0009001199F300D1124F901E955FE4F418133
:101BB0004713F2CF40814613EFCF42814111ECCF62
:101BC000438154814A1B5B0B483C510528F78091A7
:101BD000DC018F7080618093DC01F901E455FE4FD8
:101BE00080818F708061808387ED91E00E94F40C8A
:101BF000DF91CF911F910C94780DAF92BF92CF924D
:101C0000DF92EF92FF920F931F93CF93DF93CDB7A5
:101C1000DEB761970FB6F894DEBF0FBECDBF8C0163
:101C200085E0F801DE011D9601900D928A95E1F79D
:101C3000F80140815181E28087EDC82E81E0D82EE5
:101C40006091DA017091DB016115710509F461C1E0
:101C50009091D7012091D801892F82238F3F09F4D9
:101C600058C1A380B480F090D901F501E61BF70BB1
:101C7000FF2009F4FCC08091DC01382F307FE83C64
:101C8000F10508F0B2C0311179C0FE2C251323C034
:101C9000941321C0E1101FC08F7080618093DC011C
:101CA0000E94990DC6010E94F40C8091DC01F8019C
:101CB00085838F2D61960FB6F894DEBF0FBECDBF22
:101CC000DF91CF911F910F91FF90EF90DF90CF9018
:101CD000BF90AF900895AB2829F0842F85238F3FC4
:101CE00009F033C180E0F82FF170DF2E80FF3CC097
:101CF0008091A5012091A60136E0821315C04D8781
:101D00005E878D859E850E94E411292F22952F7074
:101D10002230F0F0243018F59F70F1F0F801958131
:101D2000907FD1F4D12C1EC090E0389FF001399FF4
:101D3000F00D1124E955FE4F6181651306C06081E5
:101D4000641303C062816E110FC001968770D5CFF6
:101D50009F7011F0882331F3805E883018F3C8013A
:101D60000E94F40CFD2CA5CFEE2009F4A2CF8091A7
:101D7000DC0181608093DC01F12C9BCF251306C030
:101D8000941304C0F801EE2009F48DC04D875E87DE
:101D90008D859E850E94550D882319F1EE2009F14D
:101DA0008091DC01803270F02091D7013091D80110
:101DB00038872F831986BB86AA868C87CE01079623
:101DC0000E94F40C86E0F801A7EDB1E001900D92BD
:101DD0008A95E1F70E94A70D0E94990DFF24F394C4
:101DE00068CFC8010E94F40CF9CF311113C07A2DCD
:101DF000B98AA88A6E2D89890E94590D87ED91E0D4
:101E00000E94F40C86E0F60111928A95E9F70E948F
:101E1000990DB2CF25130FC094130DC0E1100BC064
:101E2000F8018583C8010E94F40C86E0F601119246
:101E30008A95E9F73ECF4D875E878D859E850E9406
:101E4000550D882371F2EE2061F28091DC01803221
:101E500008F4B8CF2091D7013091D8013A83298373
:101E60001B82BD82AC828E83CE010196A9CFE83C55
:101E7000F10508F041C0FE2CEE2009F4B2CF251385
:101E80002AC0941328C08091DC0180FD1BC0982FCC
:101E9000907FC1F0F8018583903F31F0982F907FBB
:101EA000905F8F70892B8583C8010E94F40C86E0B7
:101EB000F801A7EDB1E001900D928A95E1F70E943B
:101EC000990DF7CE86E0F801A7EDB1E001900D92F3
:101ED0008A95E1F7EECE4D875E878D859E850E94BF
:101EE000550D81116FCF8091DC0181608093DC0101
:101EF000C8010E94F40CDDCE7A2DB98AA88A6E2D15
:101F000089890E94590D86E0F60111928A95E9F7B8
:101F1000D6CFEE2009F465CF4D875E878D859E85EF
:101F20000E94550DF82E882309F45BCF86E0F80156
:101F3000A7EDB1E001900D928A95E1F787ED91E070
:101F40000E94C3090E94A70DBACF81E08E25CBCE97
:101F50001F93CF93DF93CDB7DEB72C970FB6F894CE
:101F6000DEBF0FBECDBF4F83588769877A878B87C7
:101F70009C87CE0107960E94FD0D882369F08A8513
:101F80009B85892B39F04F815885842F85238F3F7E
:101F900009F071C016E05FC086E0FE013796DE01F1
:101FA000119601900D928A95E1F78A859B85892B80
:101FB00089F388859F8189238F3F61F32091A60152
:101FC00030E0C9010196877099274091A501481713
:101FD000190671F40E94320D1092A6011092A5010B
:101FE00086E0E7EDF1E0DF011D928A95E9F7D2CFB7
:101FF00096E0929FD001939FB00D1124A955BE4F3A
:10200000FE01319601900D929A95E1F78093A60119
:102010000E94780DBFCF819FC001112489559E4F2A
:102020000E94FD0D8823E9F0E091A5011E9FF001BB
:102030001124E955FE4F4081518162817381848171
:1020400095810E94680D8091A50190E001968770AE
:1020500099278093A5018091A5019091A6018913EC
:10206000DACF2C960FB6F894DEBF0FBECDBFDF914E
:10207000CF911F91089569857A858B859C850E94F3
:10208000680D88CF08950C9442100E94431060930D
:102090000E0270930F0280931002909311020C9421
:1020A0001C0D08950C9445100F931F9300910E0280
:1020B00010910F022091100230911102602B712BB0
:1020C000822B932B1F910F910C9445100F931F930C
:1020D00000910E0210910F02209110023091110216
:1020E00060237123822393231F910F910C94451039
:1020F0000F931F9300910E0210910F022091100276
:102100003091110260277127822793271F910F9129
:102110000C9445100C945E020E948A1060930A028F
:1021200070930B0280930C0290930D020C941C0D83
:1021300060E070E0CB010C948C100F931F9341E092
:1021400050E060E070E08A019B0104C0000F111FA5
:10215000221F331F8A95D2F7C901B8011F910F9131
:102160000C948C100F931F9341E050E060E070E0FE
:1021700004C0440F551F661F771F8A95D2F78091C0
:102180000A0290910B02A0910C02B0910D028A01FB
:102190009B01082B192B2A2B3B2BC901B8011F913E
:1021A0000F910C948C100F931F9341E050E060E06E
:1021B00070E004C0440F551F661F771F8A95D2F741
:1021C000CB01BA01609570958095909500910A02B7
:1021D00010910B0220910C0230910D0260237123AB
:1021E000822393231F910F910C948C100F931F93B4
:1021F00041E050E060E070E004C0440F551F661FEE
:10220000771F8A95D2F780910A0290910B02A091D4
:102210000C02B0910D028A019B01082719272A2779
:102220003B27C901B8011F910F910C948C100F939B
:102230001F9300910A0210910B0220910C02309121
:102240000D02602B712B822B932B1F910F910C94FD
:102250008C100F931F9300910A0210910B02209192
:102260000C0230910D0260237123822393231F916E
:102270000F910C948C100F931F9300910A021091F0
:102280000B0220910C0230910D02602771278227EA
:1022900093271F910F910C948C1008952CE0929F1E
:1022A000800D1124982F977041E001C0440F9A953A
:1022B000EAF786958695869595E0899FF001112429
:1022C000E352FE4F90E080E070E05191DF01119702
:1022D0009B01082E02C0369527950A94E2F72170DB
:1022E00021952527242325272C93019685309105B8
:1022F00061F708952CE0929F800D1124982F97701C
:1023000086958695869525E0829FF0011124E352FB
:10231000FE4F50E040E080E0219130E0092E02C005
:10232000369527950A94E2F721703327042E01C0D1
:10233000220F0A94EAF7822B4F5F5F4F4530510519
:1023400059F70895BF92CF92DF92EF92FF920F93C9
:102350001F93CF93DF938C01C0900A02D0900B02A1
:10236000E0900C02F0900D0280910E0290910F020D
:10237000A0911002B0911102C82AD92AEA2AFB2A98
:10238000CFE1D0E0BC2ED701C6010C2E04C0B6951B
:10239000A795979587950A94D2F780FD0EC021974F
:1023A00088F7B12C8B2DDF91CF911F910F91FF906A
:1023B000EF90DF90CF90BF900895B8018C2F0E94CE
:1023C0008503019761F3EECFCF93DF93EC010E9479
:1023D000A211BE01DF91CF910C9485031F93CF937F
:1023E000DF93EB019091A401992331F0CB01DF91B0
:1023F000CF911F910C94E411882379F0CB010E94B6
:10240000A211182F682FCE010E944E11BE01812FFC
:10241000DF91CF911F910C948503CB010E947A111B
:10242000182FF4CF682F80910001909101010C9436
:10243000CB13682F80910001909101010C94CD1372
:1024400080910001909101010C94CF1380911202B0
:1024500085958595859508958091120287700895D8
:1024600090911202977081E009F480E008958091C4
:102470001E02089590911E02892B80931E020895DA
:10248000809590911E02982390931E0208951092B9
:102490001E02089590911D02892B80931D020895BC
:1024A000809590911D02982390931D02089510929B
:1024B0001D02089510921C02089580911302089540
:1024C00008950C94601290911302981721F0809354
:1024D00013020C946112089580911302882329F04D
:1024E0001092130280E00C9461120895E0910001B3
:1024F000F091010180911E028083E0910001F09132
:102500000101808190911D02892B8083E09100015F
:10251000F0910101808190911C02892B8083909120
:102520001302992381F0E0910001F0910101808173
:10253000892B808380910001909101010E94831377
:1025400081110E946C1280910001909101010C9404
:10255000820808950C94A91298E0899F9001112493
:10256000622B609312020E94B21080911202859534
:10257000859585950C94AA121092120280E00C9415
:10258000AA12909112028095892380931202282F1B
:10259000277071F4282F082E000C330B92171306A6
:1025A00039F08595859585950E94D3100C94BC12C1
:1025B00008956FEF7FEF90E080E00C94A31E90E011
:1025C00080E00E947F1E21E08C3E9E4F09F020E0BB
:1025D000822F089582E090E00C94771E83E090E0D3
:1025E0000C94771ECF9384E090E00E94771EC82F52
:1025F00081E290E00E94771E982F8C2FCF91089552
:10260000CF93C92F682F84E090E00E94851E6C2F25
:1026100081E290E0CF910C94851EAB01BC018FE06C
:1026200090E00C94971EAB01BC0183E190E00C9408
:10263000971E60E070E0CB010C94131360E070E033
:10264000CB010E940D130C9419136CEE7EEF90E0F9
:1026500080E00E94A31E60E082E090E00E94851E60
:1026600060E083E090E00E94851E10920E021092BE
:102670000F02109210021092110260E084E090E0CC
:102680000E94851E60E081E290E00E94851E60E06D
:1026900085E090E00E94851E60E086E090E00E9468
:1026A000851E6FEF87E090E00E94851E40E050E0BD
:1026B000BA0188E090E00E94971E60E08DE090E013
:1026C0000E94851E40E050E0BA0188E190E00E943F
:1026D000971E60E087E190E00E94851E40E050E098
:1026E000BA018CE190E00E94971E60E080E290E0E9
:1026F0000E94851E0C941E130C942513682F8EE0E7
:1027000090E00C94851E9C012E5F3F4FAC01485F0A
:102710005F4F80E02417350709F40895F90191917E
:102720009F019923B9F38F5FF5CF662349F0FC0130
:10273000329608962191261729F0E817F907D1F764
:1027400080E0089581E008959C01FC0132969FEF9E
:1027500080E04191461751F09F3F19F4411101C0AB
:10276000982F8F5F8630A9F79F3F09F40895290FAE
:10277000311D97FD3A95F90162830895FC01329667
:1027800008962191261303C0DF0111971C92E817C8
:10279000F907B9F708950C94A4130C94BE1302968C
:1027A00026E0FC0111922A95E9F70895089508950D
:1027B0000C94D7130E94D81380915C02843049F1A5
:1027C0001092200288E190E020E40FB6F894A895DA
:1027D000809360000FBE2093600080E00E941D0384
:1027E0000E94D81383B7817F846083BF83B78160E1
:1027F00083BF7894889583B78E7F83BF0FB6F89494
:10280000A8958091600088618093600010926000BC
:102810000FBE08950895CF930E94D6130E94B50568
:102820000E940A14C0E08C2F0E945F05892B31F4AE
:10283000CF5FC630C1F780E0CF91089581E0FCCF33
:1028400008950C9420140E94320D0E9476080E9474
:102850001D030C9421141F921FB61F9211248F93F5
:102860009F93AF93BF9380912002811113C08091F9
:10287000520290915302A0915402B0915502419698
:10288000A11DB11D8093520290935302A093540254
:10289000B0935502BF91AF919F918F911F901FBE32
:1028A0001F90189582E084BD93E095BD9AEF97BD87
:1028B00080936E0008952FB7F89480915202909102
:1028C0005302A0915402B09155022FBF08959C016C
:1028D0004FB7F8948091520290915302A091540204
:1028E000B09155024FBF821B930B089578941F92AD
:1028F0001FB61F9211248F939F93AF93BF93809124
:10290000520290915302A0915402B0915502019647
:10291000A11DB11D8093520290935302A0935402C3
:10292000B0935502BF91AF919F918F911F901FBEA1
:102930001F90189587E797E7909301088093000808
:1029400088E19AE00FB6F894A895809360000FBED6
:1029500090936000FFCF0C94D9120E94B5058FE3CD
:102960009CE90197F1F700C000000E94B50580E0E6
:102970000E945F0580FF04C00E94AB140C949A145F
:1029800008950E94DF12811102C00E947C130E94F0
:10299000EA1280931F020E94F212909357028093D2
:1029A00056020E94EE12682F70E090E080E00C94D6
:1029B00052108091280280FF12C06091070185E0CB
:1029C000689FB00111247595679575956795603876
:1029D0007105A8F561157105A1F1862F089581FF94
:1029E00009C06091070185E0689FB00111247595C9
:1029F0006795EDCF6091070182FD0AC080912702A3
:102A00008823D1F09091060160910701891728F081
:102A100085E0689FB0011124DACF869FB0011124B0
:102A200085E0869F9001879F300D1124692F70E00B
:102A3000C9010E94491ECBCF65E070E0CECF8FE781
:102A4000089581E008958091280280FF0CC0609174
:102A5000030170E07595679575956795611571052A
:102A600049F1862F089581FF06C06091030170E04F
:102A700075956795F3CF6091030182FD0BC090912E
:102A800027029923A1F0609102018091030196171A
:102A900038F0682F70E06038710500F38FE7089513
:102AA000899FC001112470E00E94491EF4CF61E0AB
:102AB00070E0D7CF81E00895803F31F40E94D914AF
:102AC000819580932C020895813F19F40E94D914B6
:102AD000F8CF823F31F40E94D914819580932B0264
:102AE0000895833F19F40E94D914F8CF893F29F43F
:102AF0000E94231580932D0208958A3F21F40E949D
:102B000023158195F7CF8B3F31F40E9423158195D2
:102B100080932E0208958C3F19F40E942315F8CF5C
:102B2000843F31F480912A02816080932A020895C3
:102B3000853F21F480912A028260F7CF863F21F4FD
:102B400080912A028460F1CF873F21F480912A028C
:102B50008860EBCF883F21F480912A028061E5CF25
:102B60008D3F31F48091280281608093280208957E
:102B70008E3F21F4809128028260F7CF8F3FB9F712
:102B8000809128028460F1CF90912B02803F41F424
:102B900080912C0287FD10922C02992371F00895E8
:102BA000813F29F480912C021816ACF3F6CF823FB6
:102BB00081F497FFF2CF10922B0280912C0290911A
:102BC0002D02892B90912E02892B49F71092270212
:102BD0000895833F19F4191674F3DFCF893F39F450
:102BE00080912D021816CCF610922D02D6CF8A3F76
:102BF00029F480912D0287FFD0CFF6CF8B3F39F497
:102C000080912E0287FFC9CF10922E02C6CF8C3F33
:102C100029F480912E021816BCF3BFCF843F31F403
:102C200080912A028E7F80932A02B7CF853F21F4BC
:102C300080912A028D7FF7CF863F21F480912A026E
:102C40008B7FF1CF873F21F480912A02877FEBCFE2
:102C5000883F21F480912A028F7EE5CF8D3F31F4A9
:102C6000809128028E7F8093280297CF8E3F21F497
:102C7000809128028D7FF7CF8F3F09F08ECF809112
:102C800028028B7FF0CF89E292E00E948D080E949B
:102C90005B1490932602809325020895CF93DF93CF
:102CA00000D000D000D0CDB7DEB786E0E9E2F2E098
:102CB000DE01119601900D928A95E1F780912B0229
:102CC00090912C02892B81F0809123029091240213
:102CD0000E946714AC0190912702992331F18091F1
:102CE00008018417150670F180912D0290912E0233
:102CF000892B91F080912102909122020E94671409
:102D0000AC0190912702992309F478C080910401C5
:102D10008417150608F480C026960FB6F894DEBF17
:102D20000FBECDBFDF91CF910895209109018AE0B8
:102D3000289F9001112424173507B0F69F5F9093C8
:102D4000270202C09F3FD1F710922D0210922E024F
:102D500080912B02181624F40E94D91480932B0220
:102D600080912B0287FF05C00E94D9148195809322
:102D70002B0280912C02181624F40E94D9148093FF
:102D80002C0280912C0287FF05C00E94D9148195E6
:102D900080932C0230912B023323A1F020912C023E
:102DA000222381F045EB3403C00111249923F1F073
:102DB00090932B0245EB2403900111243323D1F08F
:102DC00030932C020E944316809125029091260296
:102DD000909324028093230286E0FE013196A9E2BB
:102DE000B2E001900D928A95E1F77ECF81E0809369
:102DF0002B02E0CF81E080932C02E4CF20910501EB
:102E00008AE0289F900111242417350708F084CF09
:102E10009F5F9093270202C09F3FD1F710922B0231
:102E200010922C0280912D02181624F40E94231572
:102E300080932D0280912D0287FF05C00E942315EB
:102E4000819580932D0280912E02181624F40E9401
:102E5000231580932E0280912E0287FF05C00E94C9
:102E60002315819580932E0230912D023323A1F0FA
:102E700020912E02222381F045EB3403C00111245E
:102E80009923F1F090932D0245EB24039001112436
:102E90003323D1F030932E020E94431680912502F5
:102EA00090912602909322028093210286E0FE01F7
:102EB0003196A9E2B2E001900D928A95E1F72CCF0C
:102EC00081E080932D02E0CF81E080932E02E4CF59
:102ED00086E0E9E2F2E0DF011D928A95E9F71092BF
:102EE0002702109228020895809137020895CF9307
:102EF000DF9300D00F92CDB7DEB790915C02943093
:102F000019F589837B836A8382E08093E9008FEFE0
:102F10009091E800815095FD06C095ED9A95F1F7E6
:102F200000008111F5CF8091E80085FF0DC050E0D1
:102F300040E063E070E0CE0101960E94B8198091F4
:102F4000E8008E778093E8000F900F900F90DF914C
:102F5000CF910895CF93DF93EC010E949B198230AB
:102F600011F0843031F4BE0184E0DF91CF910C94F4
:102F70007717DF91CF910895BC0183E00C94771708
:102F8000CF93DF93EC010E949B19823011F08430C3
:102F9000F9F482E08093E9008FEF9091E80081508E
:102FA00095FD06C095ED9A95F1F700008111F5CFDA
:102FB0008091E80085FF0CC050E040E066E070E0E2
:102FC000CE010E94B8198091E8008E778093E800C6
:102FD000DF91CF910895CF93DF93EC010E949B196D
:102FE000823011F0843039F581E08093E9008FEF71
:102FF0009091E800815095FD06C095ED9A95F1F706
:1030000000008111F5CF8091E80085FF14C050E0E9
:1030100040E068E070E0CE010E94B8198091E800BD
:103020008E778093E80088E0FE01AFE2B2E0019085
:103030000D928A95E1F7DF91CF91089580915B021F
:10304000811109C00E94481B0E94A51B8091E200CB
:1030500084608093E200089510925B0208950895C1
:1030600008950C94231442E061EC81E00E94C41A9C
:1030700042E261EC82E00C94C41A80915E028330DB
:1030800009F45FC030F48130C1F1823009F49BC093
:1030900008958A3009F487C08B3009F46DC08930F7
:1030A00009F04EC080915D02813209F049C08091E3
:1030B000610290916202029708F042C08091E8009C
:1030C000877F8093E8008091E80082FF35C090916F
:1030D000F3008091F200029729F48091F1008B7F38
:1030E000813021F48091F100809337028091E800D3
:1030F0008B778093E8000C94F81A80915D02813AF6
:10310000F9F48091E800877F8093E8008091610264
:1031100090916202892B61F468E08FE292E070E0A6
:103120000E94071A8091E8008B778093E800089549
:1031300060E090E080E0F3CF80915C028111C3CF2A
:10314000089580915D02813AD9F780916102909152
:103150006202892BA9F78091E800877F8093E800BD
:103160008091E80080FFFCCF809114018093F100F2
:103170008091E8008E77BDCF80915D02813201F7AA
:103180008091610290916202892BD1F68091E800D2
:10319000877F8093E8000E94F81A80915F028093F5
:1031A00014010C94320D80915D02813249F68091B8
:1031B000E800877F8093E8000E94F81A80916002FF
:1031C00080933802089580915D02813A09F0B8CF6A
:1031D0008091E800877F8093E8008091E80080FF7D
:1031E000FCCF80913802C2CF84B7877F84BF0FB6EF
:1031F000F894A89580916000886180936000109297
:1032000060000FBE80E890E00FB6F89480936100F4
:10321000909361000FBE0E94D5080E94481B0E9437
:10322000A51B8091E20084608093E20078940E9464
:103230002E1E0E94DF088AE091E00E9471088091B2
:103240005C02853019F00E94E708F9CF0E94DA137A
:1032500080915A02882399F30E940B14882379F3F2
:103260000E94A219ECCF0C943519292F3327233053
:10327000310519F168F42130310509F44AC02230D2
:10328000310509F44BC090E080E030E020E028C038
:103290002132310579F122323105A9F780E490E03D
:1032A0002AEE33E061157105D9F081E890E029E656
:1032B00033E061307105A1F0E6CF992781309105A7
:1032C00099F0009741F08230910589F00397D9F683
:1032D000ECEEF2E002C0E8E1F3E0849190E09F01BF
:1032E000FA01318320830895E8E0F3E0F6CFE2EFBE
:1032F000F2E0F3CF89E090E02EE233E06115710552
:1033000079F389E090E027E433E06130710541F31F
:10331000BACF82E190E027E533E0E2CF8BE390E0A3
:103320002CE133E0DDCF80915C02843011F482E047
:10333000089581E0089580913902811102C00C94B2
:103340009319089580E189BD82E189BD09B400FE29
:10335000FDCF8091D8008F7D8093D8008091E000D0
:1033600082608093E0008091E00081FDFCCF0895B1
:10337000AF92BF92CF92DF92FF920F931F93CF93A2
:10338000DF936C01EB018A010E94171BF82E81115B
:1033900023C00115110539F0F80180819181C81B06
:1033A000D90BC80ED91EB12CA12C2097A9F0809161
:1033B000E80085FD22C08091E8008E778093E800C8
:1033C00001151105A1F0F80180819181A80EB91EA7
:1033D000B182A08285E0F82E8F2DDF91CF911F91D1
:1033E0000F91FF90DF90CF90BF90AF9008950E9413
:1033F000171B8823D1F2F82EEFCFF60181916F01D0
:103400008093F1002197FFEFAF1ABF0ACECFFC01E6
:10341000809163029091640286179707A0F061156E
:10342000710529F49091E8009E779093E80090E070
:103430006115710551F4911108C08091E80082FF77
:1034400034C080E00895BC01F2CF80915C028823F3
:10345000C1F18530C1F18091E80083FD30C08091D9
:10346000E80082FDEACF8091E80080FFE1CF809103
:10347000F3002091F200382F6115710519F0283002
:10348000310558F091E02830310509F090E02091A5
:10349000E8002E772093E800CBCF81918093F10054
:1034A000615071092F5F3F4FE7CF80915C02882305
:1034B00041F0853041F08091E80083FFBECF81E08C
:1034C000089582E0089583E00895FC0180916302ED
:1034D0009091640286179707A0F06115710529F491
:1034E0008091E8008E778093E80090E06115710587
:1034F00051F4911108C08091E80082FF35C080E04E
:103500000895BC01F2CF80915C028823C9F1853017
:10351000C9F18091E80083FD31C08091E80082FD0F
:10352000EACF8091E80080FFE1CF8091F300209105
:10353000F200382F6115710519F02830310558F067
:1035400091E02830310509F090E08091E8008E7715
:103550008093E800CBCF84918093F1003196615045
:1035600071092F5F3F4FE6CF80915C02882341F0C5
:10357000853041F08091E80083FFBDCF81E0089560
:1035800082E0089583E00895982F973028F08F7097
:103590008093E90081E008959093E900242F762F2D
:1035A00050E0981731F07091EC002091ED005091AF
:1035B000F00021FD02C09F5FE8CF3091EB003E7F1D
:1035C0003093EB003091ED003D7F3093ED00309172
:1035D000EB0031603093EB007093EC002093ED0032
:1035E0005093F0002091EE0027FDE5CF80E0089594
:1035F00080915D0287FF13C08091E80082FF06C0C2
:103600008091E8008B778093E80004C080915C0291
:103610008111F2CF089580915C028823D9F38091C3
:10362000E80080FFF8CF8091E8008E77ECCF209102
:10363000E4003091E50095E6A9012091EC00822F8D
:10364000817020FF06C08091E80080FF06C080E006
:1036500008952091E80022FD1AC080915C02882321
:1036600089F0853089F08091EB0085FD0FC02091B5
:10367000E4003091E50042175307F9F29150E1F66A
:1036800084E0089582E0089583E0089581E008953C
:103690000E94B61B0E94BE1BE0EEF0E080818160BC
:1036A0008083E8EDF0E080818F77808319BCA7EDFF
:1036B000B0E08C918E7F8C9380818F7E808310927E
:1036C0005B0208950F931F93CF93DF930E94B61B65
:1036D0000E94BE1BC8EDD0E088818F7788838881E7
:1036E0008068888388818F7D888319BC10925C02F2
:1036F0001092580210925A021092590200EE10E0F5
:10370000F80180818B7F808388818160888342E09B
:1037100060E080E00E94C41AE1EEF0E080818E7FDC
:103720008083E2EEF0E08081816080838081886028
:103730008083F80180818E7F808388818061888387
:10374000DF91CF911F910F910895E8EDF0E0808116
:103750008F7E8083E7EDF0E080818160808384E06C
:1037600082BF81E080935B020C94621BE8EDF0E085
:1037700080818E7F80831092E20008951092DA009B
:103780001092E10008951F920F920FB60F9211242C
:103790002F933F934F935F936F937F938F939F9359
:1037A000AF93BF93EF93FF938091E10082FF0BC033
:1037B0008091E20082FF07C08091E1008B7F8093BF
:1037C000E1000E942D1E8091DA0080FF19C08091D7
:1037D000D80080FF15C08091DA008E7F8093DA00D8
:1037E0008091D90080FF96C080E189BD82E189BDCA
:1037F00009B400FEFDCF81E080935C020E941E1898
:103800008091E10080FF19C08091E20080FF15C027
:103810008091E2008E7F8093E2008091E2008061DF
:103820008093E2008091D80080628093D80019BC18
:1038300085E080935C020E9430188091E10084FF53
:103840002BC08091E20084FF27C080E189BD82E126
:1038500089BD89B5982F917080FFFBCF8091D800EA
:103860008F7D8093D8008091E1008F7E8093E1006E
:103870008091E2008F7E8093E2008091E20081607F
:103880008093E20080915802882309F449C084E0C3
:1038900080935C020E9431188091E10083FF29C06F
:1038A0008091E20083FF25C08091E100877F8093B3
:1038B000E10082E080935C02109258028091E10066
:1038C0008E7F8093E1008091E2008E7F8093E20002
:1038D0008091E20080618093E20042E060E080E05D
:1038E0000E94C41A8091F00088608093F0000E94CA
:1038F0002F18FF91EF91BF91AF919F918F917F9181
:103900006F915F914F913F912F910F900FBE0F904C
:103910001F90189519BC10925C020E942C1870CF51
:103920008091E30087FD93E090935C02B3CF1F92F8
:103930000F920FB60F9211242F933F934F935F93E3
:103940006F937F938F939F93AF93BF93CF93DF93A7
:10395000EF93FF93D091E900DF708091EC00C82FC6
:10396000C17080FDC0E81092E9008091F000877F6F
:103970008093F00078940E94DB1C1092E900809103
:10398000F00088608093F000CD2BCF70C093E900E9
:10399000FF91EF91DF91CF91BF91AF919F918F9167
:1039A0007F916F915F914F913F912F910F900FBE3B
:1039B0000F901F9018951F93CF93DF93CDB7DEB76D
:1039C000AA970FB6F894DEBF0FBECDBF8DE592E08B
:1039D0002091F100FC012193CF01F2E085369F0791
:1039E000B9F70E943D188091E80083FF1EC18091C5
:1039F0005D0290915E029A3008F017C1E92FF0E065
:103A0000EB52F14E0C945D1E803899F0823809F02B
:103A10000CC1809161028F70873008F006C18093DD
:103A2000E9008091EB0085FB882780F91092E9007E
:103A300006C08091590290915A0291118260909132
:103A4000E800977F9093E8008093F1001092F100D6
:103A50008091E8008E77E5C0882309F4D3C08230D6
:103A600009F0E3C080915F028111D6C080916102AC
:103A70008F702FEF280F263008F0D7C08093E90011
:103A80002091EB0020FFC8C0933031F48091EB000F
:103A900080628093EB00C0C09091EB0090619093A6
:103AA000EB0021E030E001C0220F8A95EAF7209375
:103AB000EA001092EA008091EB008860EACF811161
:103AC000B4C010915F021F778091E3008078812B52
:103AD0008093E3008091E800877F8093E8000E9454
:103AE000F81A8091E80080FFFCCF8091E3008068A5
:103AF0008093E30082E0111183E080935C0295C023
:103B00008058823008F091C080915F0290916002ED
:103B10008C3D23E09207A1F583E08A838AE28983C2
:103B20004FB7F894DE01139620E03EE051E2E32F18
:103B3000F0E050935700E49120FF03C0E295EF704E
:103B40003F5FEF708E2F90E0EA30C0F0C7968D9304
:103B50009D932F5F243159F74FBF8091E800877FF5
:103B60008093E8006AE270E0CE0101960E94071A95
:103B70008091E8008B778093E80057C0C096E7CF2C
:103B80006091610270916202AE014F5F5F4F0E94CF
:103B90003319BC01892B09F448C09091E800977F44
:103BA0009093E80089819A810E94651AE1CF80385C
:103BB000E1F58091E800877F8093E80080915802CA
:103BC0008093F10045CF811130C090915F02923017
:103BD00060F58091E800877F8093E8009093580219
:103BE0000E94F81A80915802882311F084E005C0E1
:103BF0008091E30087FDFACF81E080935C020E9410
:103C0000331813C080915F02813079F481E09330E2
:103C100009F080E080935A021092E9008091E80058
:103C2000877F8093E8000E94F81A8091E80083FF64
:103C30000AC08091E800877F8093E8008091EB00C4
:103C400080628093EB00AA960FB6F894DEBF0FBE99
:103C5000CDBFDF91CF911F9108950895CF938091AB
:103C60005C028823A1F0C091E900CF709091EC0034
:103C7000892F817090FD80E8C82B1092E900809117
:103C8000E80083FD0E94DB1CCF70C093E900CF9158
:103C9000089597FB072E16F4009407D077FD09D0FE
:103CA0000E94631E07FC05D03EF4909581959F4FBE
:103CB0000895709561957F4F0895EE0FFF1F059051
:103CC000F491E02D0994AA1BBB1B51E107C0AA1F68
:103CD000BB1FA617B70710F0A61BB70B881F991FAD
:103CE0005A95A9F780959095BC01CD010895F99951
:103CF000FECF92BD81BDF89A992780B50895A8E1BD
:103D0000B0E042E050E00C94AB1E262FF999FECFB4
:103D100092BD81BDF89A019700B4021639F01FBA1E
:103D200020BD0FB6F894FA9AF99A0FBE089503963B
:103D3000272F0E94861E0E94851E252F0E94861E08
:103D4000242F0C94861E0196272F0E94861E0C9409
:103D5000851EDC01CB01FC01F999FECF06C0F2BD46
:103D6000E1BDF89A319600B40D9241505040B8F739
:103D70000895F894FFCF0B0B0B0B630B630BB50B84
:103D8000D10B380B380BDC0B680C770C770C410D22
:103D9000410D4A0D4A0D4C0D4A0D4A0D4A0D410D7B
:103DA000410D510D4A0D4A0D510D041D2C1D151EBE
:0E3DB0002C1D151E5F1D801D151ED71DE31D49
:103DBE0014022808641E140A321E7417EB17C0175B
:103DCE00BC17AA1701E200E900EA00B500B600B779
:103DDE0000CD008301CC008A0192019401210223BF
:103DEE000224022502260227022A02B300B4006F23
:103DFE00007000818283F4F5F6F731333534C697BF
:103E0E006694939291903236E200E900EA00B50092
:103E1E00B600B700CD008301CC008A019201940157
:103E2E002102230224022502260227022A02B300BF
:0A3E3E00B4006F0070008182830061
:00000001FF
