:100000000C94F0020C9437030C9437030C943703D0
:100010000C9437030C9437030C9437030C94370378
:100020000C9437030C9437030C942F240C94032561
:100030000C94971C0C9437030C9437030C943703DF
:100040000C9437030C9437030C9437030C94370348
:100050000C9437030C94E21C0C9437030C94370374
:100060000C9437030C9437030C9437030C94370328
:100070000C9437030C9437030C9437030C94370318
:100080000C9437030C9437030C9437030C94370308
:100090000C9437030C9437030C9437030C943703F8
:1000A0000C9437030C9437030C94370335001E006F
:1000B0001F0020002100220023002400250026002C
:1000C00027004C002B0014001A0008001500170030
:1000D0001C0018000C00120013002A002900040064
:1000E0001600070009000A000B000D000E000F00AB
:1000F00033002800E1001D001B0006001900050068
:10010000110010003600370038003400E000E00035
:10011000E200E30001512C002C000251500051007C
:1001200052004F0035021E021F022002210222024D
:10013000230224022502260227022A0035021E027B
:100140001F0220022102220223022402250226028B
:1001500027024C004C003A003B003C003D003E00B2
:100160003F002D022E022F0230023102010040001A
:1001700041004200430044004500320264024A004C
:100180004D0001000100010001000100010001001B
:1001900001000100AB00AA00A900AE0035001E005E
:1001A0001F0020002100220023002400250026003B
:1001B00027002A0035001E001F0020002100220019
:1001C000230024002A00260027004C004C003A009F
:1001D0003B003C003D003E005000510052004F00EB
:1001E0000100310001004000410042004300440092
:1001F0004500320064004B004E0001000100010088
:10020000010001000100010001000100AB00AA0093
:10021000A900AE00005C015C0100010001000100CA
:100220000100010001000100010001000100C25CA9
:10023000C35CC55CC95CCA5CC75CC85C01000000EB
:1002400000004C0001000100295C1D5C1E5C135C79
:100250000A5C0100010001000100010001002B5CAB
:100260002A5C265C275C2C5C2D5C010001000100EF
:100270000100010001000100010001000100010076
:1002800001000100010001000100010032190A0013
:10029000047F3F1F643214643214783C1E1E140A1B
:1002A000052223252628292A2C2D2F3032333536B6
:1002B000383A3B3D3E4042434547494A4C4E5051F7
:1002C000535557595A5C5E6062646668696B6D6F1E
:1002D00071737577797B7D7F81838587898A8C8E21
:1002E00090929496989A9C9E9FA1A3A5A7A8AAAC29
:1002F000AEAFB1B3B4B6B8B9BBBCBEBFC1C2C3C563
:10030000C6C7C9CACBCCCDCED0D1D2D2D3D4D5D604
:10031000D7D7D8D9D9DADADBDBDBDCDCDCDCDCDD37
:10032000DDDDDDDCDCDCDCDCDBDBDBDADAD9D9D81B
:10033000D7D7D6D5D4D3D2D2D1D0CECDCCCBCAC9B3
:10034000C7C6C5C3C2C1BFBEBCBBB9B8B6B4B3B1E2
:10035000AFAEACAAA8A7A5A3A19F9E9C9A9896947D
:1003600092908E8C8A89878583817F7D7B79777552
:1003700073716F6D6B6968666462605E5C5A595731
:10038000555351504E4C4A4947454342403E3D3BF0
:100390003A3836353332302F2D2C2A29282625237A
:1003A00022FFAA7F55400001010101010101010165
:1003B0000202020202020202020303030303030316
:1003C00003040404040404040505050505060606E3
:1003D0000606070707070708080808090909090AA0
:1003E0000A0A0B0B0B0C0C0C0D0D0D0E0E0E0F0F45
:1003F0000F101011111112121313141415151616D3
:100400001717181819191A1A1B1B1C1D1D1E1E1F41
:100410002020212222232424252626272829292A90
:100420002B2C2D2D2E2F30313232333435363738B8
:10043000393A3B3C3D3E3F404142434445464748B4
:10044000494A4C4D4E4F50515354555658595A5B8A
:100450005D5E5F616264656668696B6C6D6F70722A
:10046000737577787A7B7D7E8082838587888A8C96
:100470008E8F91939596989A9C9EA0A2A3A5A7A9CA
:10048000ABADAFB1B3B5B7BABCBEC0C2C4C6C9CBC1
:10049000CDCFD1D4D6D8DBDDDFE2E4E7E9EBEEF077
:1004A000F3F5F8FAFDFF04033000000010035600D6
:1004B00061006E00650065006C00610000000E03C5
:1004C0006E006F0063006C0065007700000004039D
:1004D000090409023B00020100A0FA09040000011E
:1004E00003010100092111010001224000070581DB
:1004F0000308000A0904010001030000000921119A
:100500000100012281000705820320000A12011068
:100510000100000008069901000100010203010525
:10052000010902A10185020901A10005091901299A
:100530000515002501950575018102950175038159
:10054000010501093009311581257F950275088162
:100550000609381581257F950175088106050C0A65
:1005600038021581257F950175088106C0C00501F7
:100570000980A101850319012AB700150126B700DA
:10058000950175108100C0050C0901A101850419B0
:10059000012AA002150126A002950175108100C054
:1005A00005010906A101050719E029E71500250144
:1005B00095087501810295017508810105071900EB
:1005C00029FF150026FF009506750881000508190A
:1005D000012905950575019102950175039101C0E9
:1005E00011241FBECFEFDAE0DEBFCDBF04B603FE9D
:1005F00027C08091450390914603A0914703B09195
:1006000048038730904BA740B04BD1F4109245037C
:1006100010924603109247031092480314BE84B709
:10062000877F84BF0FB6F894A89580916000886199
:1006300080936000109260000FBEE0E0F8E309953F
:1006400011E0A0E0B1E0E6E9F0E502C005900D920E
:10065000AA3CB107D9F723E0AAECB1E001C01D9292
:10066000A534B207E1F70E9460210C9411280C9484
:1006700000000F9303E021E042E00E9491030F91FC
:10068000089581E0089581E008950C94430308954E
:100690000C9447031F93CF93DF9300D000D00F92A9
:1006A000CDB7DEB749835A836B8330914D02898180
:1006B0009A8131111DC06623B9F02223A9F00E944E
:1006C000F419182F682F89819A810E94A0196981D5
:1006D0007A81812F0F900F900F900F900F90DF91E4
:1006E000CF911F910C9452040E94CC19182FEFCF78
:1006F0000E94F41969817A81EDCFFC01262F408197
:1007000051816281738184810C944A03CF93DF937A
:10071000EC0160E00E947D03BE01DF91CF910C945B
:1007200048038F929F92AF92BF92CF92DF92EF9247
:10073000FF920F931F936B017C0181E090E0A0E09A
:10074000B0E04C015D0104C0880C991CAA1CBB1CC4
:100750004A95D2F7B501A4014C015D0104C0880C93
:10076000991CAA1CBB1C2A95D2F7482959296A2929
:100770007B2904C0880F991FAA1FBB1F0A95D2F7B7
:100780008A019B010C211D212E213F2104171507F1
:100790002607370789F48C299D29AE29BF29BC017A
:1007A000CD011F910F91FF90EF90DF90CF90BF9000
:1007B000AF909F908F90089580959095A095B0955B
:1007C0008C219D21AE21BF21EACF0E94191D0E94DC
:1007D000311B811102C00E94CE1B0C943B060C946D
:1007E0003E0608950C94F10381E008950C94F403FF
:1007F000CF93C82F0E94F2038C2FCF910C94F60355
:1008000008950E9484150E9400042FEF84E39CE069
:10081000215080409040E1F700C000000C94061D7C
:100820000F931F93CF93DF93EC0161E00E947D0350
:100830008C01BE010E944503882359F1BE01C80105
:100840000E94310F882329F1BE01C8010E94720F56
:100850008823F9F0BE01C8010E9495108823C9F0D1
:10086000BE01C8010E94280E882399F08A8188233E
:1008700039F001158CE5180751F00E3D1C4579F053
:10088000CE01DF91CF911F910F910C9441030E94F3
:10089000010480E0DF91CF911F910F9108950E9494
:1008A000CE1BF7CF972F70E02CE0929F600D711D4B
:1008B0001124FB019CE3899FE00DF11D1124EE0F33
:1008C000FF1FE455FF4F859194910895CF93DF93D7
:1008D0000E9452040E946005EC01811521E59207F7
:1008E00008F042C0811530E5930708F09DC0883EAE
:1008F000910530F5803E910508F092C0883A910547
:1009000088F4853A910508F084C08130910509F496
:1009100087C0009709F484C0049708F081C0D0E034
:10092000C0E07EC08F3B9105D0F7C85AD0E0CC0F15
:10093000DD1FC55DDE4F0990D881C02DD46470C025
:100940008115904250F4C11581E0D80708F068C0C5
:10095000C03FD10520F3D06563C0C11590E4D9072D
:10096000F0F2DF70D06A5CC0811525E5920700F5D2
:10097000811534E5930708F08BC0811543E5940792
:1009800008F073C0C11582E5D80708F469C0CE012C
:100990008370992721E030E002C0220F331F8A952F
:1009A000E2F7C695C69580E2C89FE001112454C0C5
:1009B000C11599E5D907A8F4C11528E5D20708F0B3
:1009C0006CC0C11536E5D30708F0A9CF8C2F0E9463
:1009D000F705C82FD0E0DC2FCC27CC27DF71D06201
:1009E0001FC0C1154AE5D40708F45CC0CE0190567B
:1009F0008115904208F093CF8D2F8F710E94F705DB
:100A000090E0982F882788279F719C012C2BE90163
:100A1000E6CFC55AD0E0C75ADE4FC881D0E0D064D7
:100A2000CE01DF91CF910895E4E096958795EA9500
:100A3000E1F783702C2F26952695237040E2249FA2
:100A400090011124382B8C2F8370C1E0D0E002C0BC
:100A5000CC0FDD1F8A95E2F7C22BD32BDC68E0CFE9
:100A6000DC2FCC27C16FD06ADBCF8370992721E0C0
:100A700030E002C0220F331F8A95E2F7C695C69573
:100A800090E2C99FE0011124C22BD32BDA68C8CFB2
:100A9000D82FCC27C46FD06AC3CFDC2FCC27C06F30
:100AA000D06ABECF8C2F8F700E94F70534E0D695A8
:100AB000C7953A95E1F7CF709C2FEC01D069B0CF84
:100AC00082389105B1F1B0F48133910509F475C014
:100AD00048F48932910509F469C08A32910509F414
:100AE00073C008958533910509F459C08933910580
:100AF00001F10895833E9105A9F138F4803E9105F6
:100B0000F9F0823E910549F10895863E9105A9F1DB
:100B1000873E9105C9F1843E910519F5209137036F
:100B200021FF1FC08091360384FD14C087EE90E042
:100B30000895209136032370A1F080EE90E008958F
:100B40002091360320FD47C03091370330FF09C0A4
:100B500024FF44C090E080E004C02091360322FDD1
:100B6000F7CF08952091360322FD3BC03091370323
:100B700030FDE3CF24FFF5CFEDCF2091360323FFE7
:100B8000F0CF24FDE7CFD2CF2091360323FD2CC038
:100B90003091370331FFEECF84EE90E0089520913D
:100BA000360325FFDECF89E290E0089520913603D9
:100BB00025FFD7CF85E390E008952091360326FFE7
:100BC000D0CF8AE290E008952091360326FFC9CF66
:100BD00081E390E0089589E390E0089583EE90E04A
:100BE000089582EE90E0089586EE90E00895909149
:100BF000360392FF06C0282F28712830F9F4877F2A
:100C0000846093FF06C0282F28712831F1F4877E75
:100C100084612091370320FF06C0382F38713830A7
:100C2000D9F4877F816021FF06C0282F28712831E1
:100C3000D1F4877E816194FD877E0895282F2471E9
:100C40002430F9F68B7F8860DCCF282F2471243183
:100C500001F78B7E8861DDCF382F3171313019F784
:100C60008E7F8860E0CF282F2171213121F78E7E81
:100C70008861E1CF08950C943A0608950C943D06DE
:100C8000E82FF0E0EE0FFF1FE651FD4F80819181CC
:100C90000895089580EA8A95F1F70895CF93DF9338
:100CA000A8E6B1E04DE651E0C1E0D0E08D91E82F3B
:100CB000E295EF70F0E061A18F709E0101C0220FFC
:100CC0008A95EAF7922F9095962391A382A1822B81
:100CD00082A34A175B0751F7ACE5B1E061E070E031
:100CE0008D91E82FE295EF70F0E041A18F709B01AC
:100CF00001C0220F8A95EAF7922F9095942391A331
:100D000082A1822B82A381E0A836B80749F710920E
:100D1000E1021092E0021092EB021092EA021092AD
:100D2000E3021092E2021092ED021092EC02109295
:100D3000E5021092E4021092EF021092EE0210927D
:100D4000E7021092E6021092F1021092F002109265
:100D5000E9021092E8021092F3021092F20285E08A
:100D60000E943D07DF91CF910C94E5038F929F92F3
:100D7000AF92BF92CF92DF92EF92FF920F931F93A9
:100D8000CF93DF9388E6E82E81E0F82E00EE12E0A4
:100D9000912CAA24A394B12CF70181917F01C82F33
:100DA000C295CF70D0E099A18F70650101C0CC0CC5
:100DB0008A95EAF7892F8C2989A38AA18C2C8094A3
:100DC00088218AA30E944A06ECE5F1E050E040E069
:100DD00030E020E06191A62FA295AF70B0E0909630
:100DE0008C9190E06F7002C0959587956A95E2F7B7
:100DF00080FD3EC0C501042E02C0880F991F0A94D1
:100E0000E2F7282B392B4F5F5F4F4C30510511F71C
:100E100089A1882289A28AA1C82ACAA2F801808150
:100E200091812817390739F13183208381E0982A8D
:100E30000E5F1F4FFDE6EF16F1E0FF0609F0ACCFA5
:100E4000292D45E06AEE72E080EE92E00E943E07B6
:100E50000E94EF03892DDF91CF911F910F91FF9099
:100E6000EF90DF90CF90BF90AF909F908F900895BC
:100E700090E080E0C6CF80E0DACF0895FF920F9334
:100E80001F93CF93DF93F82E092F162FD72FC42F40
:100E9000222349F081E08093CC010E94C71C9093EB
:100EA000CB018093CA018091CC018823A1F080916D
:100EB000CA019091CB010E94D31C069760F0EF2DE0
:100EC000F02FA12FBD2F90E080E0D0E08C179D0780
:100ED00044F01092CC01DF91CF911F910F91FF90C0
:100EE0000895219131912D933D930196EFCFAF92CB
:100EF000BF92CF92DF92FF920F931F93CF93DF9316
:100F0000362F472FE82FF0E0EA55FC4F71110DC046
:100F10006491762F862FDF91CF911F910F91FF90D3
:100F2000DF90CF90BF90AF900895C72FD0E024916D
:100F3000F22E022F10E056E0659FC0011124EFEF62
:100F4000F0E0BF010E94CF26832F90E0880F991F09
:100F500035E5369FD001379FB00D11248A1B9B0BBE
:100F6000982F990F980F6F01CC1ADD0AC09ED001FF
:100F7000C19EB00DD09EB00D11248B2F949FA00167
:100F80001124452F55276F01C41AD50AC09EA00110
:100F9000C19E500DD09E500D11245F01A91AB108B9
:100FA000AC9E6001AD9ED00CBC9ED00C1124CD2C0B
:100FB000DD24EC19FD09E09FE001E19FD00DF09FD9
:100FC000D00D1124ED2F62307105A1F048F46115A8
:100FD000710569F06130710589F0EB2F852F07C02D
:100FE0006430710571F088F066307105B1F76E2FCD
:100FF000722F91CFE22F2B2F8D2FF9CFE22F252F9C
:10100000F6CFEB2F822F2D2FF2CF2B2F8F2DE52F09
:10101000EECF0895CF93DF93762FE901682F842FC9
:101020000E947707798368838A83DF91CF9108953F
:101030008091F402982F9E7F29F4817082608093C2
:10104000F40208958635E8F381708465F8CF88E06E
:1010500090E00C946E27CF92DF92EF92FF926B019B
:101060007C010E941808B701A60188E090E0FF907B
:10107000EF90DF90CF900C948C27E4EFF2E083E0C8
:10108000808311828FEF82838383148260817181D8
:10109000828193810C942B088091F40280FF02C01E
:1010A0008695089580E008958091F802833018F4C1
:1010B0008F5F8093F8026091F4027091F502809145
:1010C000F6029091F7020C942B088091F802882385
:1010D00019F081508093F8026091F4027091F5024A
:1010E0008091F6029091F7020C942B0870E00C941A
:1010F000980E609107018091F40280FF0AC08091F0
:10110000060123E0829FC001112487509D4F0C945B
:101110007608809108019091090123E0829FF001F7
:101120001124E750FD4F891750F711821082128267
:101130008F5F3396F8CF9091F40290FF14C0909196
:1011400008012091090133E0939FF0011124E75039
:10115000FD4F921710F00C947908818360834283CD
:101160009F5F3396F6CF0895CF93DF9300D00F9211
:10117000CDB7DEB79091F40290FF0AC09E012F5FB9
:101180003F4F0E940A084B8169818A810E949B0817
:101190000F900F900F90DF91CF910895CF93DF9331
:1011A000EC01EC81F0E0EF55FD4F4491E4EFF2E00B
:1011B000628181810E94B4088C818F5F8C83DF9172
:1011C000CF910895CF93DF93EC01E4EFF2E04381F8
:1011D00062818C810E94B4088C818F5F8C83DF9147
:1011E000CF9108950F931F93CF93DF9300D00F9269
:1011F000CDB7DEB78C018091CD0181110AC09E016F
:101200002F5F3F4F4FEF6FEF0E940A088A81809354
:10121000CD01F8016481613069F08091CD0140E039
:10122000662361F040E0623011F44091CD0180E02E
:1012300060E004C06091CD0140E080E00E949B0826
:10124000F801848190E0019663E070E00E94E3265B
:1012500084830F900F900F90DF91CF911F910F918A
:101260000895AF92BF92CF92DF92EF92FF920F93C9
:101270001F93CF93DF9300D00F92CDB7DEB7182F17
:10128000F62E042FE22E9091F40290FF29C0E92F50
:10129000E695AE2FB0E0A359BE4F8C9180933602F5
:1012A0009E7F923059F59E012F5F3F4F812F0E9404
:1012B0000A084B8169818A810E949B081093F5027C
:1012C000F092F6020093F702EE2051F06091F402E2
:1012D0007091F5028091F6029091F7020E942B081E
:1012E0000F900F900F90DF91CF911F910F91FF9072
:1012F000EF90DF90CF90BF90AF900895823019F4B7
:101300000091F702DBCF863019F41091F502D6CFA9
:101310008930D9F3893191F6E9518E2F8170D82E19
:10132000E695F0E0EF55FC4FA590B490C12CBB249E
:1013300060910A01C61618F00E947908BFCF2C2DC3
:1013400030E0A29EC001A39E900DB29E900D11248C
:1013500070E00E94CF26812FD11013C0860F4091DC
:101360000801420F532F511D9A01220F331F240FE2
:10137000351F27503D4F402F6F2D0E940A08C39400
:10138000D7CF861BECCFE4EFF2E09181282F438189
:10139000628188E0890F0C94310981E00C94C309C3
:1013A000E4EFF2E09181282F4381628188EF890F79
:1013B0000C94310981E00C94D009E4EFF2E06281F1
:1013C00028E0620F08F46FEF282F438181810C948D
:1013D000310981E00C94DD09E4EFF2E0628128E05C
:1013E000621B08F460E0282F438181810C9431094D
:1013F00081E00C94EC09E4EFF2E0438128E0420F35
:1014000008F44FEF282F628181810C94310981E02B
:101410000C94FB09E4EFF2E0438128E0421B08F45E
:1014200040E0282F628181810C94310981E00C9485
:101430000A0A20E00C943109EF92FF921F93CF9398
:10144000DF93EC0110E0EE24EA94F12C60910A01A4
:10145000161770F00E9479089A818C8190FF27C03E
:101460008F5F8C83DF91CF911F91FF90EF90089554
:1014700020910801422F410F5527551FCA019A019B
:10148000220F331F280F391F27503D4F70E0C7012F
:101490000E94E326962F8C814091F7026091F6021C
:1014A000199F800D11240E940A081F5FCFCF815021
:1014B000D8CFAF92BF92CF92DF92EF92FF920F936D
:1014C0001F93CF93DF93FC0182810FEF80FF01E038
:1014D00010E043E1A42E80910A011817C8F00E9481
:1014E00079088091CF01013009F055C0811102C007
:1014F00080910A0181508093CF01DF91CF911F919C
:101500000F91FF90EF90DF90CF90BF90AF90089534
:10151000C0910801C12ED12CCC0DDD2DD11DCE01E5
:10152000880F991FC80FD91FC750DD4F1982188225
:101530001A8234E0E32EF12CB12C8091CF018B0D77
:1015400084311CF16A2D0E94C126892F082E000CBF
:10155000990BC816D90691F48091F7028E9DA001CF
:101560008F9D500D112455954795559547959E0192
:101570006091F6028091F5020E940A08B00EF1E037
:10158000EF1AF108D1F61F5FA6CF87FFDFCF90914A
:101590000A01890FDBCF90E0019660910A0170E0AB
:1015A0000E94E326A8CF0F931F93CF93DF938091E0
:1015B00008019091090123E0829FF0011124E75076
:1015C000FD4F891740F1C0E0D3E060910A01C617D2
:1015D00040F10E947908209104018091CE01820F90
:1015E0008093CE0190910501920F909305011916F9
:1015F00054F4082E000C990B40910A014150550BF0
:10160000841795071CF0219520930401DF91CF9159
:101610001F910F9108951182108212828F5F33966D
:10162000D0CF0C2F10E070E0C8010E94E32620917B
:101630000801820F482F50E02091CE01022E000CAD
:10164000330B02171307BCF020910501022E000C8A
:10165000330B201731077CF08D9F90011124275008
:101660003D4F4091F7026091F6028091F5020E9491
:101670000A08CF5FAACFFA01EE0FFF1FE40FF51F94
:10168000E750FD4F118210821282F3CF0F931F9308
:10169000CF93DF938C01FC01848195810196817049
:1016A000992795838483C0E0D5E580910A01C81706
:1016B00030F0DF91CF911F910F910C947908209118
:1016C0000801422F4C0F5527551FCA019A01220FBE
:1016D000331F280F391F27503D4F8C2F8695F80157
:1016E00044815581840F952F911D81704091F7029F
:1016F0006091F6028D9F802D11240E940A08CF5F11
:10170000D4CF0F931F93CF93DF93EC0110E000E051
:1017100090910A019017110609F06CF40E94790863
:101720008C8190E00196817099278C83DF91CF9115
:101730001F910F91089520910801A801420F511D9A
:101740009A01220F331F240F351F27503D4F4C8124
:101750006091F6028091F50296959017110651F06E
:101760004CF0442349F04091F7020E940A080F5FB1
:101770001F4FCECF4423B9F340E0F7CF8F929F9213
:10178000AF92BF92CF92DF92EF92FF920F931F938F
:10179000CF93DF93FC01B280948081E0848300E0EA
:1017A00015E05BE4A52E88248394EE24EA94F12CC2
:1017B0007BE4C72ED12C80910A01081770F0DF91CD
:1017C000CF911F910F91FF90EF90DF90CF90BF903E
:1017D000AF909F908F900C947908C02FD0E01C9F01
:1017E000F0011D9FF00D1124E053FE4F91101CC01D
:1017F0001382128220910801CE01820F911D9C015B
:10180000220F331F280F391F27503D4F1C9FF00117
:101810001D9FF00D1124E053FE4F428161818081B4
:101820000E940A080F5FC7CF2381222379F121503C
:10183000238334818A2D821B311101C0822F1C9F8A
:10184000F0011D9FF00D1124E053FE4F9091F7021F
:10185000899FC0011124B6010E94CF266283211105
:1018600004C0332311F01482A38222E02B1510F25E
:101870001C9FF0011D9FF00D1124E053FE4F80913D
:10188000F50280838091F6028183B4CF0E944927BC
:10189000823091400CF0AECF82E08B1530F50E9483
:1018A0004927B7010E94E3261C9FF0011D9FF00D00
:1018B0001124E053FE4F808322E02B15C8F40E94D0
:1018C00049272091F6022695622F70E00E94E326B8
:1018D000280F1C9FF0011D9FF00D1124E053FE4FB7
:1018E00021831282A382848285CF8091F502DCCF8E
:1018F0002091F602EECFE4EFF2E080818E7F8083CC
:1019000060817181828193810E942B08109237023D
:101910002FEF80E792E0215080409040E1F700C037
:1019200000000C947908E4EFF2E080818E7F8083E0
:10193000109237022FEF80E792E0215080409040D4
:10194000E1F700C000000C9479086091F4026695FC
:1019500070E04BE050E08BE091E00E945927892B2A
:1019600019F481E0809337020E94C71C90933002E3
:1019700080932F0208959091F40290FF35C09170EA
:10198000811128C092609093F402662351F0609117
:10199000F4027091F5028091F6029091F7020E9494
:1019A0002B086091F402669570E04BE050E08BE00C
:1019B00091E00E945927892BA1F01092370281E013
:1019C000809332024091F7026091F6028091F50215
:1019D0000C94190A8B3210F09465D5CF880F982B90
:1019E000D2CF0E94A50CEBCF0895682F9091F402FE
:1019F000969581E0890F8B3208F081E00C94BB0C46
:101A000081E00C94F50C682F9091F40296958FEF7D
:101A1000890F09F48AE20C94BB0C81E00C94030D4D
:101A200061E00C94BB0CE4EFF2E080818160808384
:101A300086950C94100D8091F40280FD0C947B0C23
:101A40000C94130D60E00C94BB0C80913502811155
:101A50002EC00E94311B811104C00E94CE1B0E9427
:101A60003D080E9427086093F4027093F50280936A
:101A7000F6029093F7026E7F61F40E943D080E9487
:101A800027086093F4027093F5028093F602909316
:101A9000F7020E941808109237028091F40280FF2A
:101AA00003C086950E94220D81E08093350208953F
:101AB000E4EFF2E080818160808386950C94220DB2
:101AC0001092370208950F931F93CF93DF93809165
:101AD0003702882309F49DC080913602E091F40218
:101AE000E695E81BE09331028230C9F5F0E0E35659
:101AF000FD4FE491CE2FD0E00EEC18E08091320241
:101B0000882389F0109232020E94C71C9E01209502
:101B10003095820F931F9093300280932F02109282
:101B200034021092330280912F02909130020E9471
:101B3000D31C8C179D0708F46CC0E0912F02F09124
:101B40003002CE0FDF1FD0933002C0932F028FE2FE
:101B500092E0F801DF91CF911F910F9109948630A7
:101B600049F4F0E0E656FD4FE491CE2FD0E002EECE
:101B700018E0C4CF893051F4E695F0E0E956FD4F06
:101B8000E491CE2FD0E00CE11AE0B8CF8F3051F4C1
:101B9000E695F0E0EC56FD4FE491CE2FD0E009E55C
:101BA0001AE0ACCF853149F4F0E0EF56FD4FE491F7
:101BB000CE2FD0E003ED1AE0A1CFC8EED3E006E4CB
:101BC0001BE0883109F49ACF833239F4EFE8F2E070
:101BD000C591D49102EF18E091CFC4EFD1E001E8B4
:101BE0001BE0843209F48ACFC0EDD7E009E018E0A9
:101BF000853209F083CF8E2F63E00E94B526E92F4E
:101C0000F0E0E457FD4FE491CE2FD0E00EEB1BE067
:101C100075CFDF91CF911F910F910895FA01811136
:101C200001C0FB010994CF93DF93C82FD62F0E94E8
:101C30004C088C1740F00E944C088D1720F4DF915F
:101C4000CF910C94000D8C2FDF91CF910C94100D3F
:101C50000F931F93CF938C01FB01C281CC2309F416
:101C600065C00E94891A8272F801E25CFC45E43189
:101C7000F10538F4ED5EF74D0C94F7260E941B0D2C
:101C8000C0E08C2FCF911F910F9108954DE05DE042
:101C900060E07DE00E940E0EF3CF40E05DE06DE07D
:101CA0007DE0F8CF4AED59E06DEC79E0F3CF4DECF3
:101CB00059E06AED79E0EECF48EF59E069EE79E05E
:101CC000E9CF49EE59E068EF79E0E4CF46E15AE028
:101CD00067E07AE0DFCF47E05AE066E17AE0DACF0A
:101CE00045E658E064E578E0D5CF44E558E065E6A0
:101CF00078E0D0CF81E00E94100DC2CF65E082E095
:101D00000E94130EBDCF68E086E0FACF6EE089E056
:101D1000F7CF64E18FE0F4CF67E185E1F1CF88E1AF
:101D2000EACF62E289E1ECCF83E2E5CFC1E0A9CF5F
:101D3000219A45B14D7F55B15260EFB7F8949B01A0
:101D4000220F331F260F371F280F391F2817390777
:101D500041F4EFBF8FE594E00197F1F700C0000078
:101D60000895DC016D91CD0178E055B9000000C007
:101D700067FF45B9660F000000C000C000C045B94C
:101D800000C07A9591F7E2CF0F931F93CF93DF9323
:101D9000C62FD42F022FFC0182818823C9F06093C3
:101DA0003A020E94C71C909339028093380280E265
:101DB0008C0F883008F050C0C77081E001C0880FD8
:101DC000CA95EAF7DF91CF911F910F910C941513EB
:101DD00010913A02161335C0809138029091390261
:101DE0000E94D31C883C910560F5C0E2CD0F1D1701
:101DF000B9F080E2810F883040F4177081E001C0B3
:101E0000880F1A95EAF70E941C13C83048F481E045
:101E10009D2F977001C0880F9A95EAF70E941513BD
:101E2000802F0E940213C830B8F4D77081E001C03F
:101E3000880FDA95EAF7DF91CF911F910F910C94FB
:101E40001C1380E28C0F883038F4C77081E001C029
:101E5000880FCA95EAF7EFCFDF91CF911F910F91CD
:101E600008959C01CB01233F4CE5340731F190F4F8
:101E7000283DFCE53F07E9F0293D4CE5340769F1D1
:101E8000273D3C4579F426E241EE61EE0E94C40E06
:101E900080E00895253FFCE53F07B9F090F0263F2C
:101EA0003C45B9F0FC0182818823D1F010923A02BE
:101EB000089527E245EE65EEE9CF26E241EE60EEB9
:101EC000E5CF27E245EE64EEE1CF26E241EE62EE99
:101ED000DDCF27E245EE66EED9CF28E241E0EBCF39
:101EE00081E00895CF93DF93EC01FB018281882389
:101EF00009F419C1C230FCE5DF07C0F1C6319CE529
:101F0000D90730F09E012A5F3C452930310570F534
:101F10000E94441B9093370380933603C031ECE555
:101F2000DE0709F4CFC008F05BC0C8308CE5D807E5
:101F300009F4B6C088F5C430ECE5DE0709F4A8C0A2
:101F4000C0F4C2308CE5D80709F49CC080913603F8
:101F50008260C330DC4509F498C0809136039091CB
:101F600037030E94521B0E94841580E0DF91CF91BD
:101F70000895809136038061C630ECE5DE0709F4F0
:101F800084C0809136038860C730DC4508F47DC08A
:101F900080913603806279C0CC308CE5D80709F493
:101FA00089C070F4809136038C60CA30ECE5DE079E
:101FB00009F46BC008F478C0809136038E7F65C049
:101FC000CE308CE5D80709F479C0809136038B7F39
:101FD000CF30DC4508F459C0809136038F7E55C060
:101FE000CB3FECE5DE0709F457C030F5C3318CE593
:101FF000D80709F46FC078F4C131ECE5DE0709F4C5
:1020000065C0C231DC4509F0A8CF0E9484158091DB
:1020100036038F773AC0C5318CE5D80709F462C022
:1020200008F476C0809137038160CA3FDC4509F02F
:1020300094CF8093370391CFCF3FFCE5DF0709F4BE
:102040004DC088F4809137038D7FCD3F9CE5D90743
:1020500081F3809137038E7FCE3FDC4550F3809132
:1020600037038360E6CFC130FDE5DF0709F459C0CF
:1020700008F444C080E0C230DD4509F06ECF0E9414
:10208000D01B6BCF8091360381608093360365CF80
:10209000809136038460F9CF809137038260C9CF85
:1020A000809136038064F1CF0E94841580913603BD
:1020B0008068EBCF809136038D7FE7CF8091360328
:1020C000877FE3CF809136038F7DDFCF809136030A
:1020D0008F7BDBCF80913603837FD7CF809137030F
:1020E0008C7FA7CF8091360382FB992790F921E05E
:1020F000922790FB82F990FB83F9C7CF8091370339
:10210000982F909591708E7F892B90FB81F991CFBC
:102110000E94841590913603892F97FB87F9805888
:10212000B4CF81E0ACCF81E021CFCF93DF93EB013F
:1021300086319C4511F50E94891A9A81992399F05C
:102140008A7A91E009F490E090933B02811109C0F2
:1021500089E20E94641A0E94C81A80E0DF91CF9140
:10216000089585E3F6CF80913B02811104C089E296
:102170000E946B1AF0CF85E3FBCF81E0EFCF909305
:102180004102809340020895E0914002F0914102A3
:10219000309721F00190F081E02D099480E00895BE
:1021A000E0914002F0914102309721F00280F381EA
:1021B000E02D09940895E0914002F091410230979A
:1021C00039F022E0DC012C930480F581E02D0994A4
:1021D000089520913E0230913F022817390771F08F
:1021E00090933F0280933E02E0914002F0914102C1
:1021F000309721F00680F781E02D09940895209111
:102200003C0230913D022817390771F090933D024E
:1022100080933C02E0914002F0914102309721F01E
:102220000084F185E02D0994089585B7806885BF05
:1022300085B7806885BF0895089508950C941C1192
:1022400008950C9420110E9415110E941D110C94E8
:102250001E1181E008950C9429110E94BE1C0E9459
:102260004E060E942D1D0E94250D0C9421117F9277
:102270008F929F92AF92BF92CF92DF92EF92FF9296
:102280000F931F93CF93DF93CDB7DEB72A970FB687
:10229000F894DEBF0FBECDBF0E94B6060E942B1180
:1022A000882309F473C043E4A42E42E0B42E10E066
:1022B00000E0702E802F0E9440066C01F501819095
:1022C00091905F018816990609F45AC08091C30263
:1022D00081FD0E94490680E0EE24E394F12C8C24D9
:1022E0009D2494012E213F21232B09F443C08E838A
:1022F0007F82CE20DF2081E0CD2809F480E088872E
:102300000E94C71C8160782F9A8789874E815F81E0
:1023100068858A850E94EB11000F111FF801ED5BA3
:10232000FD4F80819181E826F926F182E0820E94AA
:10233000630D0E94BA1E0E94C41090914202891738
:10234000B1F10E94C410809342022A960FB6F8940D
:10235000DEBF0FBECDBFDF91CF911F910F91FF90D8
:10236000EF90DF90CF90BF90AF909F908F907F9035
:102370000C94F8038F5FEE0CFF1C8C3009F0B1CF8A
:102380000F5F1F4F0530110509F093CF8FEF898341
:102390008A831B820E94C71C8160782F9D838C8357
:1023A00049815A816B818D810E94EB11C0CF2A96A1
:1023B0000FB6F894DEBF0FBECDBFDF91CF911F9156
:1023C0000F91FF90EF90DF90CF90BF90AF909F90D4
:1023D0008F907F900895CF93DF93CDB7DEB72B9783
:1023E0000FB6F894DEBF0FBECDBF4F835887698705
:1023F0007A878B871E821D8285E0FE013796DE017B
:10240000119601900D928A95E1F749815A816B816D
:102410007C818D819E812B960FB6F894DEBF0FBE16
:10242000CDBFDF91CF910C94FA17FC01808191818F
:102430000C94361ACF93C82F882309F48BC08238A6
:10244000C1F40E94C41081FD85C089E30E94641A12
:102450000E94C81A2FEF81EE94E0215080409040F6
:10246000E1F700C0000089E30E946B1ACF910C9441
:10247000C81A8338A1F40E94C41080FD6BC083E5A4
:102480000E94641A0E94C81A2FEF81EE94E0215036
:1024900080409040E1F700C0000083E5E5CF84383C
:1024A000A1F40E94C41082FD55C087E40E94641A02
:1024B0000E94C81A2FEF81EE94E021508040904096
:1024C000E1F700C0000087E4CFCF8CEF8C0F813A9A
:1024D00090F46C2F80911601909117010E94E71BD8
:1024E000882329F08C2F0E946B1A0E94C81A8C2F07
:1024F0000E94641ABBCF80E28C0F883048F4C7700A
:1025000081E001C0880FCA95EAF70E948C1AAECF0D
:10251000EBE5EC0FE33040F4F0E0EA53FE4F80814E
:1025200090E0CF910C94E910E8E5EC0FE73150F41E
:10253000F0E0EE0FFF1FE856FE4F80819181CF91B2
:102540000C94FF10C03F30F08C2F0E94C81DCF911B
:102550000C94AF1ECF910895882309F452C082389D
:1025600071F40E94C41081FF4CC089E30E94641A78
:102570000E94C81A89E30E946B1A0C94C81A833807
:1025800059F40E94C41080FF3CC083E50E94641A85
:102590000E94C81A83E5EFCF843859F40E94C41012
:1025A00082FF2FC087E40E94641A0E94C81A87E441
:1025B000E2CF9CEF980F913AF0F290E2980F9830AA
:1025C00050F4877091E001C0990F8A95EAF7892F3E
:1025D0000E94921AD2CF9BE5980F933020F490E09E
:1025E00080E00C94E91098E5980F973120F490E082
:1025F00080E00C94FF10803F20F00E94301E0C946D
:10260000AF1E0895CF93C82F0E941A12C93349F400
:102610002FEF87EE93E0215080409040E1F700C01B
:1026200000008C2FCF910C94AC12882321F00E94D3
:102630008C1A0C94C81A0895882321F00E94921ACB
:102640000C94C81A0895BF92CF92DF92EF92FF9236
:102650000F931F93CF93DF936C01D62FC72FFC01ED
:10266000058102950F70128111110E94A91A0E9412
:10267000821AE82E882391F01123E9F08C2F807FB5
:10268000803421F080E28D0F8830A8F082E00E9433
:10269000131B0E94821A91E0E82EE926BC2EB29408
:1026A0009FE0B922FBE0FB15A8F1EB2DF0E0E95D1E
:1026B000F74D0C94F726E12CF1CF0C2F0F70C07F53
:1026C00011F00295007F1123A9F0002359F080E258
:1026D0008D0F883010F0D11109C0802F0E948C1A04
:1026E0000E94C81A8D2F0E941A1214C0802F0E94B7
:1026F0009C1AF6CF8D2F0E94AC12002359F080E275
:102700008D0F883010F0D1112CC0802F0E94921AAA
:102710000E94C81A2B2D2850330B2430310520F489
:102720000E94C4100E94F803EE2009F48EC10E949A
:102730007E1A80FD8AC1F60112820E94781A0E94D8
:102740000419C6010E9446150E94781ADF91CF91A4
:102750001F910F91FF90EF90DF90CF90BF900C945E
:102760002519802F0E94A21AD3CF2C2F2F70F22E62
:10277000C07FC03219F0F29480EFF822DD2369F0B7
:10278000D13049F1112391F1002351F1F6018581F6
:1027900080FFA8CF8F70858323C0112381F00111A2
:1027A00006C00E94AF1A8F290E941513B3CF0130C3
:1027B000C1F70E94AF1A8F290E94B51AABCF011141
:1027C00006C00E94BE1A8F2D0E941C13A3CF013099
:1027D00009F4A0CFF6CF112329F0063008F09ACFE4
:1027E0008F2DE2CF053008F095CFEDCF002359F3C0
:1027F000D93349F4FFEF27EE33E0F1502040304069
:10280000E1F700C000008D2F0E94AC1283CF8C2F07
:1028100086958695837069F0813009F07BCF8D2F86
:102820009C2F9370111102C090E080E00E94FF1075
:1028300071CF8D2F9C2F9370111102C090E080E01A
:102840000E94E91067CF8D2F112329F00E94C81D27
:102850000E94AF1E5FCF0E94301EFACF8C2F837074
:1028600009F041C0111156CF4D2F42954695477042
:10287000440F440F0D2F0F7010E030E020E0042EC5
:1028800004C0000F111F221F331F0A94D2F760E00B
:1028900070E0CB01D4FF0FC06FE070E080E090E00B
:1028A00004C0660F771F881F991F4A95D2F760955D
:1028B000709580959095C695C695C370602B712BC9
:1028C000822B932BC23049F058F4C13019F00E948A
:1028D000B81820CF0E94A6181DCF0E94CA181ACF80
:1028E0000E94A41817CF8695112311F08C2F8170A8
:1028F000882309F40FCF4D2F429546954770440F1A
:10290000440F0D2F0F7010E030E020E0042E04C0C3
:10291000000F111F221F331F0A94D2F760E070E0EE
:10292000CB01D4FF0FC06FE070E080E090E004C006
:10293000660F771F881F991F4A95D2F7609570958B
:1029400080959095C695C695C370602B712B822B90
:10295000932BC23049F058F4C13019F00E947B1912
:10296000D9CE0E946919D6CE0E948D19D3CE0E946D
:10297000DE18D0CECF70112329F08C2F0E940419BD
:102980008D2F12CF8D2F0E941C138C2F0E94251982
:10299000C1CED23F89F160F4D03FC9F0D13F29F1D7
:1029A000112309F442C001119DCE8C2F8F7121C0DB
:1029B000D33F39F1D43FA1F7112369F1CF718C2FA7
:1029C0000E94041963E08C2F0E94FE1AA3CE1123EB
:1029D00041F0053008F09ECE8C2F8F710E9448196F
:1029E00099CE063008F096CEF7CF8C2F8F71112339
:1029F00069F20E9404198ECE8C2F8F711123C9F3B6
:102A0000C5CF112329F08C2F8F710E94EF1882CE31
:102A10000E94EA187FCE81E00E94131B023008F466
:102A200079CE82E00E94131B75CE002359F0D93372
:102A300009F0E9CE8FEF97EEE3E081509040E0405F
:102A4000E1F7DFCE8C2F8F71A1CFDF91CF911F9156
:102A50000F91FF90EF90DF90CF90BF9008950F936C
:102A60001F93CF93DF93EC01688179818A810E9463
:102A7000401A8C010E949F190E94A318B801CE0130
:102A8000DF91CF911F910F910C942313CF93DF937C
:102A9000EC018B819C81892B29F088819981892384
:102AA0008F3F59F4DF91CF910895CE010E942F15E9
:102AB000CE01DF91CF910C948603CE010E941004C9
:102AC0008111F3CF0E94821A882361F38A818823BF
:102AD00049F382E0DF91CF910C94131B0E94A91A55
:102AE0000E94AC1A0E94C81A0E94D41F0E94AF1EF6
:102AF00090E080E00E94E91090E080E00C94FF10EC
:102B00000E94721A0C946E150E94991A0C948015EA
:102B1000E92FE295EF70E250EE3070F4F0E0ED5CFA
:102B2000F74D0C94F726803F19F020F4883E20F4EE
:102B300081E00895843FE1F380E00895883EC0F38A
:102B4000813FD1F7F5CF93FB882780F908950E9444
:102B5000361A0C948815CF93DF9300D000D00F92D3
:102B6000CDB7DEB70F900F900F900F900F90DF91C1
:102B7000CF910895CF93DF9300D000D000D0CDB790
:102B8000DEB726960FB6F894DEBF0FBECDBFDF913D
:102B9000CF9108951F93CF93DF93C0914E0216E01B
:102BA00080914F028C1304C0DF91CF911F91089543
:102BB000D0E01C9FF0011D9FF00D1124E05BFD4F44
:102BC0004081518162817381848195810E94BA150F
:102BD0002196C770E5CF40918002509181026091AB
:102BE00082027091830280918402909185020C94FC
:102BF000BA151F93CF93DF9380918502807FA9F44C
:102C000080918202882389F080914E02C0914F0208
:102C10006091800270918102A0918302B091840240
:102C2000D62FD72316E0C81304C0DF91CF911F9190
:102C3000089590E0109711F0DF3F19F40196877026
:102C4000F2CF189F9001199F300D1124F901E05B1C
:102C5000FD4F41814713F2CF40814613EFCF4281B0
:102C60004111ECCF438154814A1B5B0B483C510519
:102C700028F7809185028F70806180938502F90129
:102C8000EB5AFD4F80818F708061808380E892E0F5
:102C90000E944615DF91CF911F910C94CA15AF92F7
:102CA000BF92CF92DF92EF92FF920F931F93CF9339
:102CB000DF93CDB7DEB761970FB6F894DEBF0FBED6
:102CC000CDBF8C0185E0F801DE011D9601900D92CB
:102CD0008A95E1F7F80140815181E28080E8C82EB1
:102CE00082E0D82E60918302709184026115710593
:102CF00009F461C19091800220918102892F822381
:102D00008F3F09F458C1A380B480F0908202F5018E
:102D1000E61BF70BFF2009F4FCC080918502382FD9
:102D2000307FE83CF10508F0B2C0311179C0FE2CCB
:102D3000251323C0941321C0E1101FC08F70806140
:102D4000809385020E94EB15C6010E944615809172
:102D50008502F80185838F2D61960FB6F894DEBF4A
:102D60000FBECDBFDF91CF911F910F91FF90EF90DC
:102D7000DF90CF90BF90AF900895AB2829F0842FBB
:102D800085238F3F09F033C180E0F82FF170DF2EEB
:102D900080FF3CC080914E0220914F0236E08213AA
:102DA00015C04D875E878D859E850E94361A292F16
:102DB00022952F702230F0F0243018F59F70F1F03A
:102DC000F8019581907FD1F4D12C1EC090E0389FFE
:102DD000F001399FF00D1124E05BFD4F6181651317
:102DE00006C06081641303C062816E110FC001963A
:102DF0008770D5CF9F7011F0882331F3805E8830C3
:102E000018F3C8010E944615FD2CA5CFEE2009F449
:102E1000A2CF80918502816080938502F12C9BCFA7
:102E2000251306C0941304C0F801EE2009F48DC0E8
:102E30004D875E878D859E850E94A715882319F191
:102E4000EE2009F180918502803270F0209180029D
:102E50003091810238872F831986BB86AA868C879A
:102E6000CE0107960E94461586E0F801A0E8B2E080
:102E700001900D928A95E1F70E94F9150E94EB15D9
:102E8000FF24F39468CFC8010E944615F9CF311191
:102E900013C07A2DB98AA88A6E2D89890E94AB1534
:102EA00080E892E00E94461586E0F60111928A952C
:102EB000E9F70E94EB15B2CF25130FC094130DC094
:102EC000E1100BC0F8018583C8010E94461586E019
:102ED000F60111928A95E9F73ECF4D875E878D8581
:102EE0009E850E94A715882371F2EE2061F28091E1
:102EF0008502803208F4B8CF20918002309181029F
:102F00003A8329831B82BD82AC828E83CE010196D7
:102F1000A9CFE83CF10508F041C0FE2CEE2009F4F1
:102F2000B2CF25132AC0941328C08091850280FD5A
:102F30001BC0982F907FC1F0F8018583903F31F03E
:102F4000982F907F905F8F70892B8583C8010E9496
:102F5000461586E0F801A0E8B2E001900D928A954E
:102F6000E1F70E94EB15F7CE86E0F801A0E8B2E0A9
:102F700001900D928A95E1F7EECE4D875E878D85A3
:102F80009E850E94A71581116FCF80918502816077
:102F900080938502C8010E944615DDCE7A2DB98A3C
:102FA000A88A6E2D89890E94AB1586E0F6011192E0
:102FB0008A95E9F7D6CFEE2009F465CF4D875E8775
:102FC0008D859E850E94A715F82E882309F45BCF76
:102FD00086E0F801A0E8B2E001900D928A95E1F751
:102FE00080E892E00E9415120E94F915BACF81E0A4
:102FF0008E25CBCE1F93CF93DF93CDB7DEB72C9723
:103000000FB6F894DEBF0FBECDBF4F8358876987D8
:103010007A878B879C87CE0107960E944F1688235C
:1030200069F08A859B85892B39F04F815885842FDB
:1030300085238F3F09F071C016E05FC086E0FE0176
:103040003796DE01119601900D928A95E1F78A85F7
:103050009B85892B89F388859F8189238F3F61F325
:1030600020914F0230E0C901019687709927409165
:103070004E024817190671F40E94841510924F02EF
:1030800010924E0286E0E0E8F2E0DF011D928A95A0
:10309000E9F7D2CF96E0929FD001939FB00D112413
:1030A000A05BBD4FFE01319601900D929A95E1F71C
:1030B00080934F020E94CA15BFCF819FC001112487
:1030C000805B9D4F0E944F168823E9F0E0914E02ED
:1030D0001E9FF0011124E05BFD4F40815181628110
:1030E0007381848195810E94BA1580914E0290E08F
:1030F00001968770992780934E0280914E0290919D
:103100004F028913DACF2C960FB6F894DEBF0FBEAC
:10311000CDBFDF91CF911F91089569857A858B8509
:103120009C850E94BA1588CF08950C9494180E942B
:1031300095186093B2027093B3028093B402909397
:10314000B5020C946E1508950C9497180F931F9365
:103150000091B2021091B3022091B4023091B502F5
:10316000602B712B822B932B1F910F910C9497182E
:103170000F931F930091B2021091B3022091B402F9
:103180003091B50260237123822393231F910F9105
:103190000C9497180F931F930091B2021091B302F1
:1031A0002091B4023091B5026027712782279327BE
:1031B0001F910F910C9497180C9439030E94DC18FE
:1031C0006093AE027093AF028093B0029093B1020D
:1031D0000C946E1560E070E0CB010C94DE180F9338
:1031E0001F9341E050E060E070E08A019B0104C061
:1031F000000F111F221F331F8A95D2F7C901B80192
:103200001F910F910C94DE180F931F9341E050E033
:1032100060E070E004C0440F551F661F771F8A9559
:10322000D2F78091AE029091AF02A091B002B0911E
:10323000B1028A019B01082B192B2A2B3B2BC901B8
:10324000B8011F910F910C94DE180F931F9341E06A
:1032500050E060E070E004C0440F551F661F771F08
:103260008A95D2F7CB01BA016095709580959095BB
:103270000091AE021091AF022091B0023091B102E4
:1032800060237123822393231F910F910C94DE18E6
:103290000F931F9341E050E060E070E004C0440FE2
:1032A000551F661F771F8A95D2F78091AE029091C5
:1032B000AF02A091B002B091B1028A019B01082730
:1032C00019272A273B27C901B8011F910F910C9498
:1032D000DE180F931F930091AE021091AF02209160
:1032E000B0023091B102602B712B822B932B1F9176
:1032F0000F910C94DE180F931F930091AE02109162
:10330000AF022091B0023091B10260237123822379
:1033100093231F910F910C94DE180F931F9300912C
:10332000AE021091AF022091B0023091B10260273D
:103330007127822793271F910F910C94DE1808950F
:103340002CE0929F800D1124982F977041E001C0CE
:10335000440F9A95EAF786958695869595E0899F1C
:10336000F0011124EA57FD4F90E080E070E05191A8
:10337000DF0111979B01082E02C0369527950A940C
:10338000E2F7217021952527242325272C930196E8
:103390008530910561F708952CE0929F800D1124EE
:1033A000982F977086958695869525E0829FF001E7
:1033B0001124EA57FD4F50E040E080E0219130E0D9
:1033C000092E02C0369527950A94E2F7217033271B
:1033D000042E01C0220F0A94EAF7822B4F5F5F4F41
:1033E0004530510559F70895BF92CF92DF92EF9281
:1033F000FF920F931F93CF93DF938C01C090AE0287
:10340000D090AF02E090B002F090B1028091B20291
:103410009091B302A091B402B091B502C82AD92A02
:10342000EA2AFB2ACFE1D0E0BC2ED701C6010C2E40
:1034300004C0B695A795979587950A94D2F780FD15
:103440000EC0219788F7B12C8B2DDF91CF911F9162
:103450000F91FF90EF90DF90CF90BF900895B8014B
:103460008C2F0E946604019761F3EECFCF93DF9318
:10347000EC010E94F419BE01DF91CF910C94660417
:103480001F93CF93DF93EB0190914D02992331F07D
:10349000CB01DF91CF911F910C94361A882379F0DC
:1034A000CB010E94F419182F682FCE010E94A01999
:1034B000BE01812FDF91CF911F910C946604CB0147
:1034C0000E94CC19182FF4CF682F8091160190918B
:1034D00017010C941D1C682F809116019091170103
:1034E0000C941F1C80911601909117010C94211CC3
:1034F0008091B60285958595859508958091B6024F
:10350000877008959091B602977081E009F480E089
:1035100008958091C20208959091C202892B8093F0
:10352000C202089580959091C20298239093C2029E
:1035300008951092C20208959091C102892B809340
:10354000C102089580959091C10298239093C10281
:1035500008951092C10208951092C00208958091BA
:10356000B702089508950C94B21A9091B702981773
:1035700021F08093B7020C94B31A08958091B7029A
:10358000882329F01092B70280E00C94B31A0895B2
:10359000E0911601F09117018091C2028083E091C1
:1035A0001601F091170180819091C102892B8083CF
:1035B000E0911601F091170180819091C002892B52
:1035C00080839091B702992381F0E0911601F091E8
:1035D00017018081892B80838091160190911701BA
:1035E0000E94D51B81110E94BE1A809116019091F4
:1035F00017010C94D01008950C94FB1A98E0899F41
:1036000090011124622B6093B6020E9404198091EC
:10361000B6028595859585950C94FC1A1092B60294
:1036200080E00C94FC1A9091B602809589238093D7
:10363000B602282F277071F4282F082E000C330BA8
:103640009217130639F08595859585950E94251961
:103650000C940E1B08956FEF7FEF90E080E00C94C8
:10366000982790E080E00E94742721E08C3E9E4FD6
:1036700009F020E0822F089582E090E00C94662704
:1036800083E090E00C946627CF9384E090E00E9462
:103690006627C82F81E290E00E946627982F8C2F22
:1036A000CF910895CF93C92F682F84E090E00E94B6
:1036B0007A276C2F81E290E0CF910C947A27AB01AE
:1036C000BC018FE090E00C948C27AB01BC0183E13E
:1036D00090E00C948C2760E070E0CB010C94651BAB
:1036E00060E070E0CB010E945F1B0C946B1B6CEEE2
:1036F0007EEF90E080E00E94982760E082E090E01A
:103700000E947A2760E083E090E00E947A2710927E
:10371000B2021092B3021092B4021092B50260E0AD
:1037200084E090E00E947A2760E081E290E00E94CD
:103730007A2760E085E090E00E947A2760E086E0EA
:1037400090E00E947A276FEF87E090E00E947A274E
:1037500040E050E0BA0188E090E00E948C2760E0F1
:103760008DE090E00E947A2740E050E0BA0188E1C5
:1037700090E00E948C2760E087E190E00E947A2729
:1037800040E050E0BA018CE190E00E948C2760E0BC
:1037900080E290E00E947A270C94701B0C94771BB7
:1037A000682F8EE090E00C947A279C012E5F3F4FAB
:1037B000AC01485F5F4F80E02417350709F4089596
:1037C000F90191919F019923B9F38F5FF5CF66239A
:1037D00049F0FC01329608962191261729F0E81746
:1037E000F907D1F780E0089581E008959C01FC017C
:1037F00032969FEF80E04191461751F09F3F19F4B8
:10380000411101C0982F8F5F8630A9F79F3F09F4BF
:103810000895290F311D97FD3A95F90162830895A6
:10382000FC01329608962191261303C0DF011197FF
:103830001C92E817F907B9F708950C94F61B0C943D
:10384000101C029626E0FC0111922A95E9F70895D2
:10385000089508950C94291C0E942A1C80913C0311
:10386000843009F439C01092C40288E190E020E469
:103870000FB6F894A895809360000FBE2093600067
:1038800080E00E94F8030E94600D8091C5028111C2
:103890000AC081E08093C5028091F4028170809318
:1038A000C6020E94930C0E942A1C83B7817F846009
:1038B00083BF83B7816083BF7894889583B78E7FF9
:1038C00083BF0FB6F894A8958091600088618093BB
:1038D0006000109260000FBE08950895CF930E947B
:1038E000281C0E94B6060E946D1CC0E08C2F0E940E
:1038F0004006892B31F4CF5FC530C1F780E0CF910E
:10390000089581E0FCCF08950C94831C0E948415D7
:103910000E94C4100E94F8031092C5028091C60252
:1039200081110E94580D0E94A50C0C94841C1F92BA
:103930001FB61F9211248F939F93AF93BF938091D3
:10394000C402811113C08091320390913303A0917E
:103950003403B09135034196A11DB11D809332030C
:1039600090933303A0933403B0933503BF91AF9189
:103970009F918F911F901FBE1F90189582E084BD6C
:1039800093E095BD9AEF97BD80936E0008952FB791
:10399000F8948091320390913303A0913403B09155
:1039A00035032FBF08959C014FB7F89480913203DF
:1039B00090913303A0913403B09135034FBF821B24
:1039C000930B089578941F921FB61F9211248F9322
:1039D0009F93AF93BF938091320390913303A09153
:1039E0003403B09135030196A11DB11D80933203BC
:1039F00090933303A0933403B0933503BF91AF91F9
:103A00009F918F911F901FBE1F90189587E797E792
:103A1000909301088093000888E19AE00FB6F8942B
:103A2000A895809360000FBE90936000FFCF0C9428
:103A30002B1B0E94B6068FE39CE90197F1F700C0AB
:103A400000000E94B60680E00E94400680FF04C08D
:103A50000E94171D0C94061D08950E94311B8111B0
:103A600002C00E94CE1B0E943C1B8093C3020E9496
:103A7000441B90933703809336030E94401B682FAA
:103A800070E090E080E00C94A4188091CE0280FF5A
:103A900012C060911D0185E0689FB00111247595E9
:103AA00067957595679560387105A8F5611571057D
:103AB000A1F1862F089581FF09C060911D0185E065
:103AC000689FB001112475956795EDCF60911D0138
:103AD00082FD0AC08091CD028823D1F090911C0113
:103AE00060911D01891728F085E0689FB0011124BD
:103AF000DACF869FB001112485E0869F9001879FD1
:103B0000300D1124692F70E0C9010E94E326CBCF4C
:103B100065E070E0CECF8FE7089581E00895809151
:103B2000CE0280FF0CC06091190170E07595679519
:103B3000759567956115710549F1862F089581FF87
:103B400006C06091190170E075956795F3CF60919B
:103B5000190182FD0BC09091CD029923A1F06091D3
:103B6000180180911901961738F0682F70E06038BD
:103B7000710500F38FE70895899FC001112470E05B
:103B80000E94E326F4CF61E070E0D7CF81E0089592
:103B9000803F31F40E94451D81958093D2020895A3
:103BA000813F19F40E94451DF8CF823F31F40E94F5
:103BB000451D81958093D1020895833F19F40E9499
:103BC000451DF8CF893F29F40E948F1D8093D302B1
:103BD00008958A3F21F40E948F1D8195F7CF8B3F76
:103BE00031F40E948F1D81958093D40208958C3FFB
:103BF00019F40E948F1DF8CF843F31F48091D002D8
:103C000081608093D0020895853F21F48091D00295
:103C10008260F7CF863F21F48091D0028460F1CF9B
:103C2000873F21F48091D0028860EBCF883F21F458
:103C30008091D0028061E5CF8D3F31F48091CE023A
:103C400081608093CE0208958E3F21F48091CE0250
:103C50008260F7CF8F3FB9F78091CE028460F1CFB9
:103C60009091D102803F41F48091D20287FD109261
:103C7000D202992371F00895813F29F48091D202F4
:103C80001816ACF3F6CF823F81F497FFF2CF109273
:103C9000D1028091D2029091D302892B9091D402CB
:103CA000892B49F71092CD020895833F19F4191614
:103CB00074F3DFCF893F39F48091D3021816CCF624
:103CC0001092D302D6CF8A3F29F48091D30287FF86
:103CD000D0CFF6CF8B3F39F48091D40287FFC9CF84
:103CE0001092D402C6CF8C3F29F48091D4021816CA
:103CF000BCF3BFCF843F31F48091D0028E7F80939C
:103D0000D002B7CF853F21F48091D0028D7FF7CFCD
:103D1000863F21F48091D0028B7FF1CF873F21F441
:103D20008091D002877FEBCF883F21F48091D00231
:103D30008F7EE5CF8D3F31F48091CE028E7F8093D0
:103D4000CE0297CF8E3F21F48091CE028D7FF7CFA8
:103D50008F3F09F08ECF8091CE028B7FF0CF8FEC1A
:103D600092E00E94DB100E94C71C9093CC028093CB
:103D7000CB020895CF93DF9300D000D000D0CDB711
:103D8000DEB786E0EFECF2E0DE01119601900D92D5
:103D90008A95E1F78091D1029091D202892B81F02E
:103DA0008091C9029091CA020E94D31CAC019091EB
:103DB000CD02992331F180911E018417150670F10F
:103DC0008091D3029091D402892B91F08091C70207
:103DD0009091C8020E94D31CAC019091CD0299230E
:103DE00009F478C080911A018417150608F480C080
:103DF00026960FB6F894DEBF0FBECDBFDF91CF91F0
:103E0000089520911F018AE0289F90011124241712
:103E10003507B0F69F5F9093CD0202C09F3FD1F768
:103E20001092D3021092D4028091D102181624F479
:103E30000E94451D8093D1028091D10287FF05C069
:103E40000E94451D81958093D1028091D20218165F
:103E500024F40E94451D8093D2028091D20287FFF4
:103E600005C00E94451D81958093D2023091D102F8
:103E70003323A1F02091D202222381F045EB3403B9
:103E8000C00111249923F1F09093D10245EB240352
:103E9000900111243323D1F03093D2020E94AF1E3F
:103EA0008091CB029091CC029093CA028093C90278
:103EB00086E0FE013196AFECB2E001900D928A955A
:103EC000E1F77ECF81E08093D102E0CF81E0809363
:103ED000D202E4CF20911B018AE0289F9001112497
:103EE0002417350708F084CF9F5F9093CD0202C05E
:103EF0009F3FD1F71092D1021092D2028091D3024B
:103F0000181624F40E948F1D8093D3028091D3024F
:103F100087FF05C00E948F1D81958093D3028091F9
:103F2000D402181624F40E948F1D8093D40280912D
:103F3000D40287FF05C00E948F1D81958093D40213
:103F40003091D3023323A1F02091D402222381F0B7
:103F500045EB3403C00111249923F1F09093D3026F
:103F600045EB2403900111243323D1F03093D40284
:103F70000E94AF1E8091CB029091CC029093C80218
:103F80008093C70286E0FE013196AFECB2E001906B
:103F90000D928A95E1F72CCF81E08093D302E0CF98
:103FA00081E08093D402E4CF86E0EFECF2E0DF0121
:103FB0001D928A95E9F71092CD021092CE020895D3
:103FC0008091DD020895CF93DF9300D00F92CDB79B
:103FD000DEB790913C03943019F589837B836A8323
:103FE00082E08093E9008FEF9091E800815095FD89
:103FF00006C095ED9A95F1F700008111F5CF8091FB
:10400000E80085FF0DC050E040E063E070E0CE01C5
:1040100001960E9424228091E8008E778093E80028
:104020000F900F900F90DF91CF910895CF93DF9372
:10403000EC010E940722823011F0843031F4BE017D
:1040400084E0DF91CF910C94E31FDF91CF9108952D
:10405000BC0183E00C94E31FCF93DF93EC010E943B
:104060000722823011F08430F9F482E08093E90075
:104070008FEF9091E800815095FD06C095ED9A95DF
:10408000F1F700008111F5CF8091E80085FF0CC0A9
:1040900050E040E066E070E0CE010E942422809172
:1040A000E8008E778093E800DF91CF910895CF9359
:1040B000DF93EC010E940722823011F0843039F541
:1040C00081E08093E9008FEF9091E800815095FDA9
:1040D00006C095ED9A95F1F700008111F5CF80911A
:1040E000E80085FF14C050E040E068E070E0CE01D9
:1040F0000E9424228091E8008E778093E80088E077
:10410000FE01A5EDB2E001900D928A95E1F7DF91F5
:10411000CF91089580913B03811109C00E94B4237F
:104120000E9411248091E20084608093E20008954F
:1041300010923B030895089508950C94861C42E064
:1041400061EC81E00E94302342E261EC82E00C9459
:10415000302380913E03833009F45FC030F4813016
:10416000C1F1823009F49BC008958A3009F487C0F8
:104170008B3009F46DC0893009F04EC080913D0349
:10418000813209F049C08091410390914203029726
:1041900008F042C08091E800877F8093E80080911A
:1041A000E80082FF35C09091F3008091F200029701
:1041B00029F48091F1008B7F813021F48091F1000E
:1041C0008093DD028091E8008B778093E8000C9467
:1041D000642380913D03813AF9F48091E800877F60
:1041E0008093E8008091410390914203892B61F410
:1041F00068E085ED92E070E00E9473228091E80013
:104200008B778093E800089560E090E080E0F3CF42
:1042100080913C038111C3CF089580913D03813A81
:10422000D9F78091410390914203892BA9F780919E
:10423000E800877F8093E8008091E80080FFFCCF52
:1042400080912A018093F1008091E8008E77BDCFA4
:1042500080913D03813201F78091410390914203A7
:10426000892BD1F68091E800877F8093E8000E9437
:10427000642380913F0380932A010C9484158091DC
:104280003D03813249F68091E800877F8093E80002
:104290000E946423809140038093DE020895809100
:1042A0003D03813A09F0B8CF8091E800877F809381
:1042B000E8008091E80080FFFCCF8091DE02C2CF51
:1042C00084B7877F84BF0FB6F894A895809160006B
:1042D000886180936000109260000FBE80E890E0DB
:1042E0000FB6F89480936100909361000FBE0E9416
:1042F00023110E94B4230E9411248091E200846063
:104300008093E20078940E949A260E942D1180E208
:1043100091E00E94BF1080913C03853019F00E940B
:104320003711F9CF0E942C1C80913A03882399F30E
:104330000E946E1C882379F30E940E22ECCF0C940D
:10434000A121292F33272330310519F168F42130B9
:10435000310509F44AC02230310509F44BC090E020
:1043600080E030E020E028C02132310579F12232AE
:104370003105A9F780E490E020EA35E06115710588
:10438000D9F081E890E02FE135E061307105A1F0CE
:10439000E6CF99278130910599F0009741F082305E
:1043A000910589F00397D9F6E6EAF4E002C0EEEC55
:1043B000F4E0849190E09F01FA0131832083089515
:1043C000EEEBF4E0F6CFECEAF4E0F3CF89E090E036
:1043D00024EE34E06115710579F389E090E02DEF6A
:1043E00034E06130710541F3BACF82E190E02DE015
:1043F00035E0E2CF8BE390E022ED34E0DDCF809139
:104400003C03843011F482E0089581E008958091A6
:10441000DF02811102C00C94FF21089580E189BD63
:1044200082E189BD09B400FEFDCF8091D8008F7D67
:104430008093D8008091E00082608093E0008091BA
:10444000E00081FDFCCF0895AF92BF92CF92DF9242
:10445000FF920F931F93CF93DF936C01EB018A01BF
:104460000E948323F82E811123C00115110539F014
:10447000F80180819181C81BD90BC80ED91EB12CBF
:10448000A12C2097A9F08091E80085FD22C08091A1
:10449000E8008E778093E80001151105A1F0F8017E
:1044A00080819181A80EB91EB182A08285E0F82E8C
:1044B0008F2DDF91CF911F910F91FF90DF90CF90C3
:1044C000BF90AF9008950E9483238823D1F2F82EE5
:1044D000EFCFF60181916F018093F1002197FFEFFB
:1044E000AF1ABF0ACECFFC018091430390914403E1
:1044F00086179707A0F06115710529F49091E800DF
:104500009E779093E80090E06115710551F4911148
:1045100008C08091E80082FF34C080E00895BC01AB
:10452000F2CF80913C038823C1F18530C1F18091A5
:10453000E80083FD30C08091E80082FDEACF8091E1
:10454000E80080FFE1CF8091F3002091F200382F46
:104550006115710519F02830310558F091E02830C7
:10456000310509F090E02091E8002E772093E800D3
:10457000CBCF81918093F100615071092F5F3F4F44
:10458000E7CF80913C03882341F0853041F0809152
:10459000E80083FFBECF81E0089582E0089583E0C4
:1045A0000895FC0180914303909144038617970777
:1045B000A0F06115710529F48091E8008E77809351
:1045C000E80090E06115710551F4911108C08091E7
:1045D000E80082FF35C080E00895BC01F2CF8091F1
:1045E0003C038823C9F18530C9F18091E80083FD3F
:1045F00031C08091E80082FDEACF8091E80080FF21
:10460000E1CF8091F3002091F200382F6115710500
:1046100019F02830310558F091E02830310509F0C3
:1046200090E08091E8008E778093E800CBCF849172
:104630008093F1003196615071092F5F3F4FE6CFB3
:1046400080913C03882341F0853041F08091E8005F
:1046500083FFBDCF81E0089582E0089583E008954F
:10466000982F973028F08F708093E90081E00895AB
:104670009093E900242F762F50E0981731F0709135
:10468000EC002091ED005091F00021FD02C09F5FF1
:10469000E8CF3091EB003E7F3093EB003091ED009E
:1046A0003D7F3093ED003091EB0031603093EB00B3
:1046B0007093EC002093ED005093F0002091EE00F9
:1046C00027FDE5CF80E0089580913D0387FF13C06B
:1046D0008091E80082FF06C08091E8008B7780938C
:1046E000E80004C080913C038111F2CF08958091CD
:1046F0003C038823D9F38091E80080FFF8CF8091B4
:10470000E8008E77ECCF2091E4003091E50095E64B
:10471000A9012091EC00822F817020FF06C08091BA
:10472000E80080FF06C080E008952091E80022FDA7
:104730001AC080913C03882389F0853089F08091EC
:10474000EB0085FD0FC02091E4003091E500421799
:104750005307F9F29150E1F684E0089582E008955C
:1047600083E0089581E008950E9422240E942A2473
:10477000E0EEF0E0808181608083E8EDF0E0808110
:104780008F77808319BCA7EDB0E08C918E7F8C93DE
:1047900080818F7E808310923B0308950F931F9337
:1047A000CF93DF930E9422240E942A24C8EDD0E0F8
:1047B00088818F77888388818068888388818F7DCE
:1047C000888319BC10923C031092380310923A036C
:1047D0001092390300EE10E0F80180818B7F808316
:1047E00088818160888342E060E080E00E9430231D
:1047F000E1EEF0E080818E7F8083E2EEF0E0808168
:1048000081608083808188608083F80180818E7FD1
:104810008083888180618883DF91CF911F910F9180
:104820000895E8EDF0E080818F7E8083E7EDF0E091
:1048300080818160808384E082BF81E080933B033C
:104840000C94CE23E8EDF0E080818E7F808310927F
:10485000E20008951092DA001092E10008951F928C
:104860000F920FB60F9211242F933F934F935F93A4
:104870006F937F938F939F93AF93BF93EF93FF9328
:104880008091E10082FF0BC08091E20082FF07C0AF
:104890008091E1008B7F8093E1000E9499268091B6
:1048A000DA0080FF19C08091D80080FF15C0809188
:1048B000DA008E7F8093DA008091D90080FF96C065
:1048C00080E189BD82E189BD09B400FEFDCF81E0B0
:1048D00080933C030E948A208091E10080FF19C0F0
:1048E0008091E20080FF15C08091E2008E7F80936E
:1048F000E2008091E20080618093E2008091D80024
:1049000080628093D80019BC85E080933C030E94AC
:104910009C208091E10084FF2BC08091E20084FF05
:1049200027C080E189BD82E189BD89B5982F91704A
:1049300080FFFBCF8091D8008F7D8093D80080913D
:10494000E1008F7E8093E1008091E2008F7E809372
:10495000E2008091E20081608093E2008091380360
:10496000882309F449C084E080933C030E949D2081
:104970008091E10083FF29C08091E20083FF25C080
:104980008091E100877F8093E10082E080933C0387
:10499000109238038091E1008E7F8093E100809136
:1049A000E2008E7F8093E2008091E200806180933C
:1049B000E20042E060E080E00E9430238091F0005D
:1049C00088608093F0000E949B20FF91EF91BF913F
:1049D000AF919F918F917F916F915F914F913F9197
:1049E0002F910F900FBE0F901F90189519BC109229
:1049F0003C030E94982070CF8091E30087FD93E0F4
:104A000090933C03B3CF1F920F920FB60F921124D5
:104A10002F933F934F935F936F937F938F939F93C6
:104A2000AF93BF93CF93DF93EF93FF93D091E900C0
:104A3000DF708091EC00C82FC17080FDC0E810923B
:104A4000E9008091F000877F8093F00078940E94C5
:104A500047251092E9008091F00088608093F00073
:104A6000CD2BCF70C093E900FF91EF91DF91CF91F3
:104A7000BF91AF919F918F917F916F915F914F9176
:104A80003F912F910F900FBE0F901F9018951F937D
:104A9000CF93DF93CDB7DEB7AA970FB6F894DEBFFA
:104AA0000FBECDBF8DE393E02091F100FC01219377
:104AB000CF01F3E085349F07B9F70E94A9208091C8
:104AC000E80083FF1EC180913D0390913E039A3020
:104AD00008F017C1E92FF0E0EF5BF74D0C94F726D3
:104AE000803899F0823809F00CC1809141038F70B1
:104AF000873008F006C18093E9008091EB0085FBC8
:104B0000882780F91092E90006C0809139039091BE
:104B10003A03911182609091E800977F9093E800AA
:104B20008093F1001092F1008091E8008E77E5C04B
:104B3000882309F4D3C0823009F0E3C080913F0399
:104B40008111D6C0809141038F702FEF280F26303E
:104B500008F0D7C08093E9002091EB0020FFC8C087
:104B6000933031F48091EB0080628093EB00C0C001
:104B70009091EB0090619093EB0021E030E001C058
:104B8000220F8A95EAF72093EA001092EA008091BA
:104B9000EB008860EACF8111B4C010913F031F770A
:104BA0008091E3008078812B8093E3008091E8007E
:104BB000877F8093E8000E9464238091E80080FF53
:104BC000FCCF8091E30080688093E30082E01111C4
:104BD00083E080933C0395C08058823008F091C0F8
:104BE00080913F03909140038C3D23E09207A1F513
:104BF00083E08A838AE289834FB7F894DE011396B3
:104C000020E03EE051E2E32FF0E050935700E491C2
:104C100020FF03C0E295EF703F5FEF708E2F90E0B2
:104C2000EA30C0F0C7968D939D932F5F243159F7DA
:104C30004FBF8091E800877F8093E8006AE270E0D0
:104C4000CE0101960E9473228091E8008B778093B9
:104C5000E80057C0C096E7CF6091410370914203CE
:104C6000AE014F5F5F4F0E949F21BC01892B09F469
:104C700048C09091E800977F9093E80089819A81DD
:104C80000E94D122E1CF8038E1F58091E800877F52
:104C90008093E800809138038093F10045CF811123
:104CA00030C090913F03923060F58091E800877F9B
:104CB0008093E800909338030E9464238091380326
:104CC000882311F084E005C08091E30087FDFACFCE
:104CD00081E080933C030E949F2013C080913F039A
:104CE000813079F481E0933009F080E080933A03D9
:104CF0001092E9008091E800877F8093E8000E948D
:104D000064238091E80083FF0AC08091E800877FD8
:104D10008093E8008091EB0080628093EB00AA967C
:104D20000FB6F894DEBF0FBECDBFDF91CF911F91BC
:104D300008950895CF9380913C038823A1F0C091FA
:104D4000E900CF709091EC00892F817090FD80E890
:104D5000C82B1092E9008091E80083FD0E9447254E
:104D6000CF70C093E900CF910895991B79E004C0FA
:104D7000991F961708F0961B881F7A95C9F780959A
:104D8000089587FB082E062687FD819567FD6195AE
:104D90000E94B5260EF4919507FC81950895AA1BF3
:104DA000BB1B51E107C0AA1FBB1FA617B70710F016
:104DB000A61BB70B881F991F5A95A9F78095909548
:104DC000BC01CD01089597FB072E16F4009407D07F
:104DD00077FD09D00E94CF2607FC05D03EF49095C0
:104DE00081959F4F0895709561957F4F0895EE0FBF
:104DF000FF1F0590F491E02D09948F929F92AF923E
:104E0000BF92CF92DF92EF92FF92CF93DF93EC01AC
:104E1000688179818A819B81611571058105910580
:104E200021F464E279ED8BE597E02DE133EF41E089
:104E300050E00E94AE2749015A019B01AC01A7EA4C
:104E4000B1E40E94CD276B017C01ACEEB4EFA5016B
:104E500094010E94DB27DC01CB018C0D9D1DAE1D52
:104E6000BF1DB7FF03C00197A109B048888399838C
:104E7000AA83BB839F77DF91CF91FF90EF90DF9064
:104E8000CF90BF90AF909F908F9008950E94FD2685
:104E9000089580E091E00E94FD260895B0E0A0E032
:104EA0008093000190930101A0930201B09303014C
:104EB0000895FC014150504030F001900616D1F7A2
:104EC0003197CF010895882799270895F999FECF42
:104ED00092BD81BDF89A992780B50895A6E1B0E00A
:104EE00044E050E00C94A027A8E1B0E042E050E09C
:104EF0000C94A027262FF999FECF92BD81BDF89A78
:104F0000019700B4021639F01FBA20BD0FB6F8940D
:104F1000FA9AF99A0FBE08950396272F0E947B27CD
:104F20000E947A27252F0E947B27242F0C947B2711
:104F30000196272F0E947B270C947A27DC01CB0156
:104F4000FC01F999FECF06C0F2BDE1BDF89A319699
:104F500000B40D9241505040B8F70895052E97FBCC
:104F60001EF400940E94C52757FD07D00E94E02739
:104F700007FC03D04EF40C94C5275095409530950E
:104F800021953F4F4F4F5F4F0895909580957095B5
:104F900061957F4F8F4F9F4F08950E940228A59FD4
:104FA000900DB49F900DA49F800D911D1124089524
:104FB000B7FF0C94CD270E94CD27821B930B089539
:104FC000A1E21A2EAA1BBB1BFD010DC0AA1FBB1F0D
:104FD000EE1FFF1FA217B307E407F50720F0A21B7F
:104FE000B30BE40BF50B661F771F881F991F1A94EC
:104FF00069F760957095809590959B01AC01BD0116
:10500000CF010895A29FB001B39FC001A39F700D6F
:10501000811D1124911DB29F700D811D1124911DC0
:105020000895F894FFCF3E0E460E4D0E520E570EC9
:105030005C0E610E660E6B0E700E750E7A0E7E0E95
:10504000830E860E890E8C0E8F0E910E940E5D13BC
:105050005D13B513B513071423148A138A132E1482
:10506000BA14C914C914931593159C159C159E1553
:105070009C159C159C1593159315A3159C159C15B3
:10508000A31570259825812698258126CB25EC250A
:06509000812643264F2695
:10509600010000000102001300131301191A1B1C62
:1050A6001D1E1F202122B8022808641E140A321E63
:1050B600E01F57202C202820162001E200E900EAF4
:1050C60000B500B600B700CD008301CC008A01927E
:1050D6000194012102230224022502260227022A24
:1050E60002B300B4006F007000818283F4F535349A
:1050F600C697669490919293F6F733323600010282
:105106000202020606060909090909090F0F0F0F0F
:105116000F0F15151518191919191919191919191A
:105126002324252525252525E200E900EA00B500EA
:10513600B600B700CD008301CC008A01920194012C
:105146002102230224022502260227022A02B30094
:0A515600B4006F0070008182830036
:00000001FF
